{
  "contractName": "Nfast",
  "abi": [
    {
      "inputs": [
        {
          "internalType": "string",
          "name": "name_",
          "type": "string"
        },
        {
          "internalType": "string",
          "name": "symbol_",
          "type": "string"
        }
      ],
      "stateMutability": "nonpayable",
      "type": "constructor"
    },
    {
      "anonymous": false,
      "inputs": [
        {
          "indexed": true,
          "internalType": "address",
          "name": "owner",
          "type": "address"
        },
        {
          "indexed": true,
          "internalType": "address",
          "name": "approved",
          "type": "address"
        },
        {
          "indexed": true,
          "internalType": "uint256",
          "name": "tokenId",
          "type": "uint256"
        }
      ],
      "name": "Approval",
      "type": "event"
    },
    {
      "anonymous": false,
      "inputs": [
        {
          "indexed": true,
          "internalType": "address",
          "name": "owner",
          "type": "address"
        },
        {
          "indexed": true,
          "internalType": "address",
          "name": "operator",
          "type": "address"
        },
        {
          "indexed": false,
          "internalType": "bool",
          "name": "approved",
          "type": "bool"
        }
      ],
      "name": "ApprovalForAll",
      "type": "event"
    },
    {
      "anonymous": false,
      "inputs": [
        {
          "indexed": true,
          "internalType": "address",
          "name": "from",
          "type": "address"
        },
        {
          "indexed": true,
          "internalType": "address",
          "name": "to",
          "type": "address"
        },
        {
          "indexed": true,
          "internalType": "uint256",
          "name": "tokenId",
          "type": "uint256"
        }
      ],
      "name": "Transfer",
      "type": "event"
    },
    {
      "inputs": [
        {
          "internalType": "address",
          "name": "to",
          "type": "address"
        },
        {
          "internalType": "uint256",
          "name": "tokenId",
          "type": "uint256"
        }
      ],
      "name": "approve",
      "outputs": [],
      "stateMutability": "nonpayable",
      "type": "function"
    },
    {
      "inputs": [
        {
          "internalType": "address",
          "name": "owner",
          "type": "address"
        }
      ],
      "name": "balanceOf",
      "outputs": [
        {
          "internalType": "uint256",
          "name": "",
          "type": "uint256"
        }
      ],
      "stateMutability": "view",
      "type": "function",
      "constant": true
    },
    {
      "inputs": [
        {
          "internalType": "uint256",
          "name": "tokenId",
          "type": "uint256"
        }
      ],
      "name": "getApproved",
      "outputs": [
        {
          "internalType": "address",
          "name": "",
          "type": "address"
        }
      ],
      "stateMutability": "view",
      "type": "function",
      "constant": true
    },
    {
      "inputs": [
        {
          "internalType": "address",
          "name": "owner",
          "type": "address"
        },
        {
          "internalType": "address",
          "name": "operator",
          "type": "address"
        }
      ],
      "name": "isApprovedForAll",
      "outputs": [
        {
          "internalType": "bool",
          "name": "",
          "type": "bool"
        }
      ],
      "stateMutability": "view",
      "type": "function",
      "constant": true
    },
    {
      "inputs": [],
      "name": "name",
      "outputs": [
        {
          "internalType": "string",
          "name": "",
          "type": "string"
        }
      ],
      "stateMutability": "view",
      "type": "function",
      "constant": true
    },
    {
      "inputs": [
        {
          "internalType": "uint256",
          "name": "tokenId",
          "type": "uint256"
        }
      ],
      "name": "ownerOf",
      "outputs": [
        {
          "internalType": "address",
          "name": "",
          "type": "address"
        }
      ],
      "stateMutability": "view",
      "type": "function",
      "constant": true
    },
    {
      "inputs": [
        {
          "internalType": "address",
          "name": "from",
          "type": "address"
        },
        {
          "internalType": "address",
          "name": "to",
          "type": "address"
        },
        {
          "internalType": "uint256",
          "name": "tokenId",
          "type": "uint256"
        }
      ],
      "name": "safeTransferFrom",
      "outputs": [],
      "stateMutability": "nonpayable",
      "type": "function"
    },
    {
      "inputs": [
        {
          "internalType": "address",
          "name": "from",
          "type": "address"
        },
        {
          "internalType": "address",
          "name": "to",
          "type": "address"
        },
        {
          "internalType": "uint256",
          "name": "tokenId",
          "type": "uint256"
        },
        {
          "internalType": "bytes",
          "name": "_data",
          "type": "bytes"
        }
      ],
      "name": "safeTransferFrom",
      "outputs": [],
      "stateMutability": "nonpayable",
      "type": "function"
    },
    {
      "inputs": [
        {
          "internalType": "address",
          "name": "operator",
          "type": "address"
        },
        {
          "internalType": "bool",
          "name": "approved",
          "type": "bool"
        }
      ],
      "name": "setApprovalForAll",
      "outputs": [],
      "stateMutability": "nonpayable",
      "type": "function"
    },
    {
      "inputs": [
        {
          "internalType": "bytes4",
          "name": "interfaceId",
          "type": "bytes4"
        }
      ],
      "name": "supportsInterface",
      "outputs": [
        {
          "internalType": "bool",
          "name": "",
          "type": "bool"
        }
      ],
      "stateMutability": "view",
      "type": "function",
      "constant": true
    },
    {
      "inputs": [],
      "name": "symbol",
      "outputs": [
        {
          "internalType": "string",
          "name": "",
          "type": "string"
        }
      ],
      "stateMutability": "view",
      "type": "function",
      "constant": true
    },
    {
      "inputs": [
        {
          "internalType": "uint256",
          "name": "tokenId",
          "type": "uint256"
        }
      ],
      "name": "tokenURI",
      "outputs": [
        {
          "internalType": "string",
          "name": "",
          "type": "string"
        }
      ],
      "stateMutability": "view",
      "type": "function",
      "constant": true
    },
    {
      "inputs": [
        {
          "internalType": "address",
          "name": "from",
          "type": "address"
        },
        {
          "internalType": "address",
          "name": "to",
          "type": "address"
        },
        {
          "internalType": "uint256",
          "name": "tokenId",
          "type": "uint256"
        }
      ],
      "name": "transferFrom",
      "outputs": [],
      "stateMutability": "nonpayable",
      "type": "function"
    },
    {
      "inputs": [],
      "name": "current",
      "outputs": [
        {
          "internalType": "uint256",
          "name": "",
          "type": "uint256"
        }
      ],
      "stateMutability": "view",
      "type": "function",
      "constant": true
    },
    {
      "inputs": [
        {
          "internalType": "address",
          "name": "_to",
          "type": "address"
        },
        {
          "internalType": "string",
          "name": "_tokenURI",
          "type": "string"
        },
        {
          "internalType": "address",
          "name": "_storeAddress",
          "type": "address"
        },
        {
          "internalType": "uint256",
          "name": "_date",
          "type": "uint256"
        },
        {
          "internalType": "bool",
          "name": "_mealType",
          "type": "bool"
        },
        {
          "internalType": "uint256",
          "name": "_startTime",
          "type": "uint256"
        },
        {
          "internalType": "uint256",
          "name": "_endTime",
          "type": "uint256"
        },
        {
          "internalType": "uint256",
          "name": "_price",
          "type": "uint256"
        },
        {
          "internalType": "uint256",
          "name": "_charge",
          "type": "uint256"
        }
      ],
      "name": "create",
      "outputs": [
        {
          "internalType": "uint256",
          "name": "",
          "type": "uint256"
        }
      ],
      "stateMutability": "payable",
      "type": "function",
      "payable": true
    },
    {
      "inputs": [
        {
          "internalType": "uint256",
          "name": "_tokenId",
          "type": "uint256"
        }
      ],
      "name": "setIsUse",
      "outputs": [],
      "stateMutability": "nonpayable",
      "type": "function"
    },
    {
      "inputs": [
        {
          "internalType": "uint256",
          "name": "_tokenId",
          "type": "uint256"
        }
      ],
      "name": "getTokenURI",
      "outputs": [
        {
          "internalType": "string",
          "name": "",
          "type": "string"
        }
      ],
      "stateMutability": "view",
      "type": "function",
      "constant": true
    },
    {
      "inputs": [
        {
          "internalType": "uint256",
          "name": "_tokenId",
          "type": "uint256"
        }
      ],
      "name": "getIsUse",
      "outputs": [
        {
          "internalType": "bool",
          "name": "",
          "type": "bool"
        }
      ],
      "stateMutability": "view",
      "type": "function",
      "constant": true
    },
    {
      "inputs": [
        {
          "internalType": "uint256",
          "name": "_tokenId",
          "type": "uint256"
        }
      ],
      "name": "getStoreAddress",
      "outputs": [
        {
          "internalType": "address",
          "name": "",
          "type": "address"
        }
      ],
      "stateMutability": "view",
      "type": "function",
      "constant": true
    },
    {
      "inputs": [
        {
          "internalType": "uint256",
          "name": "_tokenId",
          "type": "uint256"
        }
      ],
      "name": "getDate",
      "outputs": [
        {
          "internalType": "uint256",
          "name": "",
          "type": "uint256"
        }
      ],
      "stateMutability": "view",
      "type": "function",
      "constant": true
    },
    {
      "inputs": [
        {
          "internalType": "uint256",
          "name": "_tokenId",
          "type": "uint256"
        }
      ],
      "name": "getStartTime",
      "outputs": [
        {
          "internalType": "uint256",
          "name": "",
          "type": "uint256"
        }
      ],
      "stateMutability": "view",
      "type": "function",
      "constant": true
    },
    {
      "inputs": [
        {
          "internalType": "uint256",
          "name": "_tokenId",
          "type": "uint256"
        }
      ],
      "name": "getEndTime",
      "outputs": [
        {
          "internalType": "uint256",
          "name": "",
          "type": "uint256"
        }
      ],
      "stateMutability": "view",
      "type": "function",
      "constant": true
    },
    {
      "inputs": [
        {
          "internalType": "uint256",
          "name": "_tokenId",
          "type": "uint256"
        }
      ],
      "name": "getMealType",
      "outputs": [
        {
          "internalType": "bool",
          "name": "",
          "type": "bool"
        }
      ],
      "stateMutability": "view",
      "type": "function",
      "constant": true
    },
    {
      "inputs": [
        {
          "internalType": "uint256",
          "name": "_tokenId",
          "type": "uint256"
        }
      ],
      "name": "getPrice",
      "outputs": [
        {
          "internalType": "uint256",
          "name": "",
          "type": "uint256"
        }
      ],
      "stateMutability": "view",
      "type": "function",
      "constant": true
    },
    {
      "inputs": [
        {
          "internalType": "uint256",
          "name": "_tokenId",
          "type": "uint256"
        }
      ],
      "name": "getCharge",
      "outputs": [
        {
          "internalType": "uint256",
          "name": "",
          "type": "uint256"
        }
      ],
      "stateMutability": "view",
      "type": "function",
      "constant": true
    }
  ],
  "bytecode": "0x60806040523480156200001157600080fd5b5060405162002cea38038062002cea8339818101604052810190620000379190620001fa565b818181600090816200004a9190620004ca565b5080600190816200005c9190620004ca565b5050505050620005b1565b6000604051905090565b600080fd5b600080fd5b600080fd5b600080fd5b6000601f19601f8301169050919050565b7f4e487b7100000000000000000000000000000000000000000000000000000000600052604160045260246000fd5b620000d08262000085565b810181811067ffffffffffffffff82111715620000f257620000f162000096565b5b80604052505050565b60006200010762000067565b9050620001158282620000c5565b919050565b600067ffffffffffffffff82111562000138576200013762000096565b5b620001438262000085565b9050602081019050919050565b60005b838110156200017057808201518184015260208101905062000153565b60008484015250505050565b6000620001936200018d846200011a565b620000fb565b905082815260208101848484011115620001b257620001b162000080565b5b620001bf84828562000150565b509392505050565b600082601f830112620001df57620001de6200007b565b5b8151620001f18482602086016200017c565b91505092915050565b6000806040838503121562000214576200021362000071565b5b600083015167ffffffffffffffff81111562000235576200023462000076565b5b6200024385828601620001c7565b925050602083015167ffffffffffffffff81111562000267576200026662000076565b5b6200027585828601620001c7565b9150509250929050565b600081519050919050565b7f4e487b7100000000000000000000000000000000000000000000000000000000600052602260045260246000fd5b60006002820490506001821680620002d257607f821691505b602082108103620002e857620002e76200028a565b5b50919050565b60008190508160005260206000209050919050565b60006020601f8301049050919050565b600082821b905092915050565b600060088302620003527fffffffffffffffffffffffffffffffffffffffffffffffffffffffffffffffff8262000313565b6200035e868362000313565b95508019841693508086168417925050509392505050565b6000819050919050565b6000819050919050565b6000620003ab620003a56200039f8462000376565b62000380565b62000376565b9050919050565b6000819050919050565b620003c7836200038a565b620003df620003d682620003b2565b84845462000320565b825550505050565b600090565b620003f6620003e7565b62000403818484620003bc565b505050565b5b818110156200042b576200041f600082620003ec565b60018101905062000409565b5050565b601f8211156200047a576200044481620002ee565b6200044f8462000303565b810160208510156200045f578190505b620004776200046e8562000303565b83018262000408565b50505b505050565b600082821c905092915050565b60006200049f600019846008026200047f565b1980831691505092915050565b6000620004ba83836200048c565b9150826002028217905092915050565b620004d5826200027f565b67ffffffffffffffff811115620004f157620004f062000096565b5b620004fd8254620002b9565b6200050a8282856200042f565b600060209050601f8311600181146200054257600084156200052d578287015190505b620005398582620004ac565b865550620005a9565b601f1984166200055286620002ee565b60005b828110156200057c5784890151825560018201915060208501945060208101905062000555565b868310156200059c578489015162000598601f8916826200048c565b8355505b6001600288020188555050505b505050505050565b61272980620005c16000396000f3fe6080604052600436106101665760003560e01c806370a08231116100d1578063b88d4fde1161008a578063d260c71011610064578063d260c710146105be578063e4852608146105ee578063e75722301461062b578063e985e9c51461066857610166565b8063b88d4fde1461051b578063bc2be1be14610544578063c87b56dd1461058157610166565b806370a08231146103e55780639067b6771461042257806395d89b411461045f5780639fa6a6e31461048a578063a22cb465146104b5578063b82edd5c146104de57610166565b80632b57298b116101235780632b57298b1461029f5780633bb3a24d146102dc5780633f36aac91461031957806342842e0e146103565780636352211e1461037f5780636d1ce87b146103bc57610166565b806301ffc9a71461016b57806306fdde03146101a8578063081812fc146101d3578063095ea7b31461021057806323b872dd14610239578063288fa5bf14610262575b600080fd5b34801561017757600080fd5b50610192600480360381019061018d9190611938565b6106a5565b60405161019f9190611980565b60405180910390f35b3480156101b457600080fd5b506101bd610787565b6040516101ca9190611a2b565b60405180910390f35b3480156101df57600080fd5b506101fa60048036038101906101f59190611a83565b610819565b6040516102079190611af1565b60405180910390f35b34801561021c57600080fd5b5061023760048036038101906102329190611b38565b610856565b005b34801561024557600080fd5b50610260600480360381019061025b9190611b78565b610947565b005b34801561026e57600080fd5b5061028960048036038101906102849190611a83565b610e28565b6040516102969190611af1565b60405180910390f35b3480156102ab57600080fd5b506102c660048036038101906102c19190611a83565b610e65565b6040516102d39190611bda565b60405180910390f35b3480156102e857600080fd5b5061030360048036038101906102fe9190611a83565b610e82565b6040516103109190611a2b565b60405180910390f35b34801561032557600080fd5b50610340600480360381019061033b9190611a83565b610f27565b60405161034d9190611980565b60405180910390f35b34801561036257600080fd5b5061037d60048036038101906103789190611b78565b610f51565b005b34801561038b57600080fd5b506103a660048036038101906103a19190611a83565b610f61565b6040516103b39190611af1565b60405180910390f35b3480156103c857600080fd5b506103e360048036038101906103de9190611a83565b610f9e565b005b3480156103f157600080fd5b5061040c60048036038101906104079190611bf5565b611036565b6040516104199190611bda565b60405180910390f35b34801561042e57600080fd5b5061044960048036038101906104449190611a83565b6110b7565b6040516104569190611bda565b60405180910390f35b34801561046b57600080fd5b506104746110d4565b6040516104819190611a2b565b60405180910390f35b34801561049657600080fd5b5061049f611166565b6040516104ac9190611bda565b60405180910390f35b3480156104c157600080fd5b506104dc60048036038101906104d79190611c4e565b611177565b005b3480156104ea57600080fd5b5061050560048036038101906105009190611a83565b6112ba565b6040516105129190611bda565b60405180910390f35b34801561052757600080fd5b50610542600480360381019061053d9190611dc3565b6112d7565b005b34801561055057600080fd5b5061056b60048036038101906105669190611a83565b611434565b6040516105789190611bda565b60405180910390f35b34801561058d57600080fd5b506105a860048036038101906105a39190611a83565b611451565b6040516105b59190611a2b565b60405180910390f35b6105d860048036038101906105d39190611ee7565b611490565b6040516105e59190611bda565b60405180910390f35b3480156105fa57600080fd5b5061061560048036038101906106109190611a83565b611607565b6040516106229190611980565b60405180910390f35b34801561063757600080fd5b50610652600480360381019061064d9190611a83565b611631565b60405161065f9190611bda565b60405180910390f35b34801561067457600080fd5b5061068f600480360381019061068a9190611fcd565b61164e565b60405161069c9190611980565b60405180910390f35b60007f80ac58cd000000000000000000000000000000000000000000000000000000007bffffffffffffffffffffffffffffffffffffffffffffffffffffffff1916827bffffffffffffffffffffffffffffffffffffffffffffffffffffffff1916148061077057507f5b5e139f000000000000000000000000000000000000000000000000000000007bffffffffffffffffffffffffffffffffffffffffffffffffffffffff1916827bffffffffffffffffffffffffffffffffffffffffffffffffffffffff1916145b80610780575061077f826116e2565b5b9050919050565b6060600080546107969061203c565b80601f01602080910402602001604051908101604052809291908181526020018280546107c29061203c565b801561080f5780601f106107e45761010080835404028352916020019161080f565b820191906000526020600020905b8154815290600101906020018083116107f257829003601f168201915b5050505050905090565b60006004600083815260200190815260200160002060009054906101000a900473ffffffffffffffffffffffffffffffffffffffff169050919050565b61085f81610f61565b73ffffffffffffffffffffffffffffffffffffffff163373ffffffffffffffffffffffffffffffffffffffff161461089657600080fd5b816004600083815260200190815260200160002060006101000a81548173ffffffffffffffffffffffffffffffffffffffff021916908373ffffffffffffffffffffffffffffffffffffffff160217905550808273ffffffffffffffffffffffffffffffffffffffff163373ffffffffffffffffffffffffffffffffffffffff167f8c5be1e5ebec7d5bd14f71427d1e84f3dd0314c0f7b2291e5b200ac8c7c3b92560405160405180910390a45050565b600061095282610f61565b90508373ffffffffffffffffffffffffffffffffffffffff168173ffffffffffffffffffffffffffffffffffffffff16146109c2576040517f08c379a00000000000000000000000000000000000000000000000000000000081526004016109b9906120df565b60405180910390fd5b600073ffffffffffffffffffffffffffffffffffffffff168373ffffffffffffffffffffffffffffffffffffffff1603610a31576040517f08c379a0000000000000000000000000000000000000000000000000000000008152600401610a289061214b565b60405180910390fd5b60006004600084815260200190815260200160002060009054906101000a900473ffffffffffffffffffffffffffffffffffffffff1690506000600560008473ffffffffffffffffffffffffffffffffffffffff1673ffffffffffffffffffffffffffffffffffffffff16815260200190815260200160002060003373ffffffffffffffffffffffffffffffffffffffff1673ffffffffffffffffffffffffffffffffffffffff16815260200190815260200160002060009054906101000a900460ff1690503373ffffffffffffffffffffffffffffffffffffffff168373ffffffffffffffffffffffffffffffffffffffff161480610b5c57503373ffffffffffffffffffffffffffffffffffffffff168273ffffffffffffffffffffffffffffffffffffffff16145b80610b645750805b610ba3576040517f08c379a0000000000000000000000000000000000000000000000000000000008152600401610b9a906121dd565b60405180910390fd5b846002600086815260200190815260200160002060006101000a81548173ffffffffffffffffffffffffffffffffffffffff021916908373ffffffffffffffffffffffffffffffffffffffff1602179055506001600360008873ffffffffffffffffffffffffffffffffffffffff1673ffffffffffffffffffffffffffffffffffffffff1681526020019081526020016000206000828254610c45919061222c565b925050819055600360008873ffffffffffffffffffffffffffffffffffffffff1673ffffffffffffffffffffffffffffffffffffffff168152602001908152602001600020819055506001600360008773ffffffffffffffffffffffffffffffffffffffff1673ffffffffffffffffffffffffffffffffffffffff1681526020019081526020016000206000828254610cde9190612260565b925050819055600360008773ffffffffffffffffffffffffffffffffffffffff1673ffffffffffffffffffffffffffffffffffffffff16815260200190815260200160002081905550600073ffffffffffffffffffffffffffffffffffffffff166004600086815260200190815260200160002060009054906101000a900473ffffffffffffffffffffffffffffffffffffffff1673ffffffffffffffffffffffffffffffffffffffff1614610dc5576004600085815260200190815260200160002060006101000a81549073ffffffffffffffffffffffffffffffffffffffff02191690555b838573ffffffffffffffffffffffffffffffffffffffff168773ffffffffffffffffffffffffffffffffffffffff167fddf252ad1be2c89b69c2b068fc378daa952ba7f163c4a11628f55a4df523b3ef60405160405180910390a4505050505050565b60006009600083815260200190815260200160002060009054906101000a900473ffffffffffffffffffffffffffffffffffffffff169050919050565b6000600a6000838152602001908152602001600020549050919050565b6060600760008381526020019081526020016000208054610ea29061203c565b80601f0160208091040260200160405190810160405280929190818152602001828054610ece9061203c565b8015610f1b5780601f10610ef057610100808354040283529160200191610f1b565b820191906000526020600020905b815481529060010190602001808311610efe57829003601f168201915b50505050509050919050565b6000600d600083815260200190815260200160002060009054906101000a900460ff169050919050565b610f5c838383610947565b505050565b60006002600083815260200190815260200160002060009054906101000a900473ffffffffffffffffffffffffffffffffffffffff169050919050565b80600015156008600083815260200190815260200160002060009054906101000a900460ff16151514611006576040517f08c379a0000000000000000000000000000000000000000000000000000000008152600401610ffd906122e0565b60405180910390fd5b60016008600084815260200190815260200160002060006101000a81548160ff0219169083151502179055505050565b60008073ffffffffffffffffffffffffffffffffffffffff168273ffffffffffffffffffffffffffffffffffffffff160361107057600080fd5b600360008373ffffffffffffffffffffffffffffffffffffffff1673ffffffffffffffffffffffffffffffffffffffff168152602001908152602001600020549050919050565b6000600c6000838152602001908152602001600020549050919050565b6060600180546110e39061203c565b80601f016020809104026020016040519081016040528092919081815260200182805461110f9061203c565b801561115c5780601f106111315761010080835404028352916020019161115c565b820191906000526020600020905b81548152906001019060200180831161113f57829003601f168201915b5050505050905090565b6000611172600661174c565b905090565b8173ffffffffffffffffffffffffffffffffffffffff163373ffffffffffffffffffffffffffffffffffffffff16036111af57600080fd5b80600560006111bc61175a565b73ffffffffffffffffffffffffffffffffffffffff1673ffffffffffffffffffffffffffffffffffffffff16815260200190815260200160002060008473ffffffffffffffffffffffffffffffffffffffff1673ffffffffffffffffffffffffffffffffffffffff16815260200190815260200160002060006101000a81548160ff0219169083151502179055508173ffffffffffffffffffffffffffffffffffffffff1661126961175a565b73ffffffffffffffffffffffffffffffffffffffff167f17307eab39ab6107e8899845ad3d59bd9653f200f220920489ca2b5937696c31836040516112ae9190611980565b60405180910390a35050565b6000600f6000838152602001908152602001600020549050919050565b6112e2848484610947565b6113018373ffffffffffffffffffffffffffffffffffffffff16611762565b1561142e5760008373ffffffffffffffffffffffffffffffffffffffff1663150b7a02338786866040518563ffffffff1660e01b81526004016113479493929190612355565b6020604051808303816000875af1158015611366573d6000803e3d6000fd5b505050506040513d601f19601f8201168201806040525081019061138a91906123b6565b90507facb7d9e3059f17bdabc47ad03f0278ec3c162128a4c73cef5bc7ea8fcd3af9a67bffffffffffffffffffffffffffffffffffffffffffffffffffffffff1916817bffffffffffffffffffffffffffffffffffffffffffffffffffffffff19161461142c576040517f08c379a000000000000000000000000000000000000000000000000000000000815260040161142390612455565b60405180910390fd5b505b50505050565b6000600b6000838152602001908152602001600020549050919050565b60606040518060400160405280600481526020017f74657374000000000000000000000000000000000000000000000000000000008152509050919050565b600061149c6006611775565b60006114a8600661174c565b90506114b4898261178b565b896007600083815260200190815260200160002090816114d49190612621565b5060006008600083815260200190815260200160002060006101000a81548160ff021916908315150217905550886009600083815260200190815260200160002060006101000a81548173ffffffffffffffffffffffffffffffffffffffff021916908373ffffffffffffffffffffffffffffffffffffffff16021790555087600a60008381526020019081526020016000208190555085600b60008381526020019081526020016000208190555084600c60008381526020019081526020016000208190555086600d600083815260200190815260200160002060006101000a81548160ff02191690831515021790555083600e60008381526020019081526020016000208190555082600f600083815260200190815260200160002081905550809150509998505050505050505050565b60006008600083815260200190815260200160002060009054906101000a900460ff169050919050565b6000600e6000838152602001908152602001600020549050919050565b6000600560008473ffffffffffffffffffffffffffffffffffffffff1673ffffffffffffffffffffffffffffffffffffffff16815260200190815260200160002060008373ffffffffffffffffffffffffffffffffffffffff1673ffffffffffffffffffffffffffffffffffffffff16815260200190815260200160002060009054906101000a900460ff16905092915050565b60007f01ffc9a7000000000000000000000000000000000000000000000000000000007bffffffffffffffffffffffffffffffffffffffffffffffffffffffff1916827bffffffffffffffffffffffffffffffffffffffffffffffffffffffff1916149050919050565b600081600001549050919050565b600033905090565b600080823b905060008111915050919050565b6001816000016000828254019250508190555050565b600073ffffffffffffffffffffffffffffffffffffffff168273ffffffffffffffffffffffffffffffffffffffff16036117c457600080fd5b6001600360008473ffffffffffffffffffffffffffffffffffffffff1673ffffffffffffffffffffffffffffffffffffffff16815260200190815260200160002060008282546118149190612260565b92505081905550816002600083815260200190815260200160002060006101000a81548173ffffffffffffffffffffffffffffffffffffffff021916908373ffffffffffffffffffffffffffffffffffffffff160217905550808273ffffffffffffffffffffffffffffffffffffffff168373ffffffffffffffffffffffffffffffffffffffff167fddf252ad1be2c89b69c2b068fc378daa952ba7f163c4a11628f55a4df523b3ef60405160405180910390a45050565b6000604051905090565b600080fd5b600080fd5b60007fffffffff0000000000000000000000000000000000000000000000000000000082169050919050565b611915816118e0565b811461192057600080fd5b50565b6000813590506119328161190c565b92915050565b60006020828403121561194e5761194d6118d6565b5b600061195c84828501611923565b91505092915050565b60008115159050919050565b61197a81611965565b82525050565b60006020820190506119956000830184611971565b92915050565b600081519050919050565b600082825260208201905092915050565b60005b838110156119d55780820151818401526020810190506119ba565b60008484015250505050565b6000601f19601f8301169050919050565b60006119fd8261199b565b611a0781856119a6565b9350611a178185602086016119b7565b611a20816119e1565b840191505092915050565b60006020820190508181036000830152611a4581846119f2565b905092915050565b6000819050919050565b611a6081611a4d565b8114611a6b57600080fd5b50565b600081359050611a7d81611a57565b92915050565b600060208284031215611a9957611a986118d6565b5b6000611aa784828501611a6e565b91505092915050565b600073ffffffffffffffffffffffffffffffffffffffff82169050919050565b6000611adb82611ab0565b9050919050565b611aeb81611ad0565b82525050565b6000602082019050611b066000830184611ae2565b92915050565b611b1581611ad0565b8114611b2057600080fd5b50565b600081359050611b3281611b0c565b92915050565b60008060408385031215611b4f57611b4e6118d6565b5b6000611b5d85828601611b23565b9250506020611b6e85828601611a6e565b9150509250929050565b600080600060608486031215611b9157611b906118d6565b5b6000611b9f86828701611b23565b9350506020611bb086828701611b23565b9250506040611bc186828701611a6e565b9150509250925092565b611bd481611a4d565b82525050565b6000602082019050611bef6000830184611bcb565b92915050565b600060208284031215611c0b57611c0a6118d6565b5b6000611c1984828501611b23565b91505092915050565b611c2b81611965565b8114611c3657600080fd5b50565b600081359050611c4881611c22565b92915050565b60008060408385031215611c6557611c646118d6565b5b6000611c7385828601611b23565b9250506020611c8485828601611c39565b9150509250929050565b600080fd5b600080fd5b7f4e487b7100000000000000000000000000000000000000000000000000000000600052604160045260246000fd5b611cd0826119e1565b810181811067ffffffffffffffff82111715611cef57611cee611c98565b5b80604052505050565b6000611d026118cc565b9050611d0e8282611cc7565b919050565b600067ffffffffffffffff821115611d2e57611d2d611c98565b5b611d37826119e1565b9050602081019050919050565b82818337600083830152505050565b6000611d66611d6184611d13565b611cf8565b905082815260208101848484011115611d8257611d81611c93565b5b611d8d848285611d44565b509392505050565b600082601f830112611daa57611da9611c8e565b5b8135611dba848260208601611d53565b91505092915050565b60008060008060808587031215611ddd57611ddc6118d6565b5b6000611deb87828801611b23565b9450506020611dfc87828801611b23565b9350506040611e0d87828801611a6e565b925050606085013567ffffffffffffffff811115611e2e57611e2d6118db565b5b611e3a87828801611d95565b91505092959194509250565b600067ffffffffffffffff821115611e6157611e60611c98565b5b611e6a826119e1565b9050602081019050919050565b6000611e8a611e8584611e46565b611cf8565b905082815260208101848484011115611ea657611ea5611c93565b5b611eb1848285611d44565b509392505050565b600082601f830112611ece57611ecd611c8e565b5b8135611ede848260208601611e77565b91505092915050565b60008060008060008060008060006101208a8c031215611f0a57611f096118d6565b5b6000611f188c828d01611b23565b99505060208a013567ffffffffffffffff811115611f3957611f386118db565b5b611f458c828d01611eb9565b9850506040611f568c828d01611b23565b9750506060611f678c828d01611a6e565b9650506080611f788c828d01611c39565b95505060a0611f898c828d01611a6e565b94505060c0611f9a8c828d01611a6e565b93505060e0611fab8c828d01611a6e565b925050610100611fbd8c828d01611a6e565b9150509295985092959850929598565b60008060408385031215611fe457611fe36118d6565b5b6000611ff285828601611b23565b925050602061200385828601611b23565b9150509250929050565b7f4e487b7100000000000000000000000000000000000000000000000000000000600052602260045260246000fd5b6000600282049050600182168061205457607f821691505b6020821081036120675761206661200d565b5b50919050565b7f5f66726f6d206973204e4f5420746865206f776e6572206f662074686520746f60008201527f6b656e0000000000000000000000000000000000000000000000000000000000602082015250565b60006120c96023836119a6565b91506120d48261206d565b604082019050919050565b600060208201905081810360008301526120f8816120bc565b9050919050565b7f5472616e73666572205f746f2061646472657373203078300000000000000000600082015250565b60006121356018836119a6565b9150612140826120ff565b602082019050919050565b6000602082019050818103600083015261216481612128565b9050919050565b7f6d73672e73656e64657220646f6573206e6f74207472616e7366657261626c6560008201527f20746f6b656e0000000000000000000000000000000000000000000000000000602082015250565b60006121c76026836119a6565b91506121d28261216b565b604082019050919050565b600060208201905081810360008301526121f6816121ba565b9050919050565b7f4e487b7100000000000000000000000000000000000000000000000000000000600052601160045260246000fd5b600061223782611a4d565b915061224283611a4d565b925082820390508181111561225a576122596121fd565b5b92915050565b600061226b82611a4d565b915061227683611a4d565b925082820190508082111561228e5761228d6121fd565b5b92915050565b7f616c726561647920757365640000000000000000000000000000000000000000600082015250565b60006122ca600c836119a6565b91506122d582612294565b602082019050919050565b600060208201905081810360008301526122f9816122bd565b9050919050565b600081519050919050565b600082825260208201905092915050565b600061232782612300565b612331818561230b565b93506123418185602086016119b7565b61234a816119e1565b840191505092915050565b600060808201905061236a6000830187611ae2565b6123776020830186611ae2565b6123846040830185611bcb565b8181036060830152612396818461231c565b905095945050505050565b6000815190506123b08161190c565b92915050565b6000602082840312156123cc576123cb6118d6565b5b60006123da848285016123a1565b91505092915050565b7f72656365697074206f6620746f6b656e206973204e4f5420636f6d706c65746560008201527f6400000000000000000000000000000000000000000000000000000000000000602082015250565b600061243f6021836119a6565b915061244a826123e3565b604082019050919050565b6000602082019050818103600083015261246e81612432565b9050919050565b60008190508160005260206000209050919050565b60006020601f8301049050919050565b600082821b905092915050565b6000600883026124d77fffffffffffffffffffffffffffffffffffffffffffffffffffffffffffffffff8261249a565b6124e1868361249a565b95508019841693508086168417925050509392505050565b6000819050919050565b600061251e61251961251484611a4d565b6124f9565b611a4d565b9050919050565b6000819050919050565b61253883612503565b61254c61254482612525565b8484546124a7565b825550505050565b600090565b612561612554565b61256c81848461252f565b505050565b5b8181101561259057612585600082612559565b600181019050612572565b5050565b601f8211156125d5576125a681612475565b6125af8461248a565b810160208510156125be578190505b6125d26125ca8561248a565b830182612571565b50505b505050565b600082821c905092915050565b60006125f8600019846008026125da565b1980831691505092915050565b600061261183836125e7565b9150826002028217905092915050565b61262a8261199b565b67ffffffffffffffff81111561264357612642611c98565b5b61264d825461203c565b612658828285612594565b600060209050601f83116001811461268b5760008415612679578287015190505b6126838582612605565b8655506126eb565b601f19841661269986612475565b60005b828110156126c15784890151825560018201915060208501945060208101905061269c565b868310156126de57848901516126da601f8916826125e7565b8355505b6001600288020188555050505b50505050505056fea264697066735822122019a383b3918aeb50483a214e02e4b28ef468bac4452f99ab7b6f0830b0783de764736f6c63430008130033",
  "immutableReferences": {},
  "source": "// SPDX-License-Identifier: MIT\r\npragma solidity ^0.8.4;\r\n\r\nimport \"./token/ERC721/ERC721.sol\";\r\nimport \"../node_modules/@openzeppelin/contracts/utils/Counters.sol\";\r\n\r\ncontract Nfast is ERC721 {\r\n    using Counters for Counters.Counter;\r\n\r\n    Counters.Counter private tokenIds;\r\n    //URI  \r\n    //{ , , , }  ipfs \r\n    mapping(uint256 => string) tokenURIs;\r\n    //\r\n    mapping(uint256 => bool) isUse;\r\n    // \r\n    mapping(uint256 => address) storeAddress;\r\n    //\r\n    mapping(uint256 => uint256) date;\r\n    //\r\n    mapping(uint256 => uint256) startTime;\r\n    //\r\n    mapping(uint256 => uint256) endTime;\r\n    //,  \r\n    mapping(uint256 => bool) mealType;\r\n    //\r\n    mapping(uint256 => uint256) price;\r\n    //\r\n    mapping(uint256 => uint) charge;\r\n\r\n    constructor(string memory name_, string memory symbol_)\r\n    ERC721(name_, symbol_)\r\n    {\r\n    }\r\n\r\n    function current() public view returns (uint256) {\r\n        return tokenIds.current();\r\n    }\r\n\r\n\r\n    function create(address _to, string memory _tokenURI, address _storeAddress, uint256 _date, bool _mealType, uint256 _startTime, uint256 _endTime, uint256 _price, uint _charge)\r\n    public\r\n    payable\r\n    returns (uint256)\r\n    {\r\n\r\n        tokenIds.increment();\r\n        uint256 newTokenId = tokenIds.current();\r\n        _mint(_storeAddress, newTokenId);\r\n\r\n        tokenURIs[newTokenId] = _tokenURI;\r\n        isUse[newTokenId] = false;\r\n        storeAddress[newTokenId] = _storeAddress;\r\n        date[newTokenId] = _date;\r\n        startTime[newTokenId] = _startTime;\r\n        endTime[newTokenId] = _endTime;\r\n        mealType[newTokenId] = _mealType;\r\n        price[newTokenId] = _price;\r\n        charge[newTokenId] = _charge;\r\n\r\n        //  \r\n        //        approve(_to, newTokenId);\r\n        return newTokenId;\r\n    }\r\n\r\n    function _burn(uint256 _tokenId)\r\n    internal\r\n    virtual\r\n    override {\r\n        super._burn(_tokenId);\r\n    }\r\n\r\n    function setIsUse(uint256 _tokenId)\r\n    public\r\n    onlyNotUse(_tokenId) {\r\n        isUse[_tokenId] = true;\r\n    }\r\n\r\n    function getTokenURI(uint256 _tokenId)\r\n    public\r\n    view\r\n    returns (string memory)\r\n    {\r\n        return tokenURIs[_tokenId];\r\n    }\r\n\r\n    function getIsUse(uint256 _tokenId)\r\n    public\r\n    view\r\n    returns (bool)\r\n    {\r\n        return isUse[_tokenId];\r\n    }\r\n\r\n    function getStoreAddress(uint256 _tokenId)\r\n    public\r\n    view\r\n    returns (address)\r\n    {\r\n        return storeAddress[_tokenId];\r\n    }\r\n\r\n    function getDate(uint256 _tokenId)\r\n    public\r\n    view\r\n    returns (uint256)\r\n    {\r\n        return date[_tokenId];\r\n    }\r\n\r\n    function getStartTime(uint256 _tokenId)\r\n    public\r\n    view\r\n    returns (uint256)\r\n    {\r\n        return startTime[_tokenId];\r\n    }\r\n\r\n    function getEndTime(uint256 _tokenId)\r\n    public\r\n    view\r\n    returns (uint256)\r\n    {\r\n        return endTime[_tokenId];\r\n    }\r\n\r\n    function getMealType(uint256 _tokenId)\r\n    public\r\n    view\r\n    returns (bool)\r\n    {\r\n        return mealType[_tokenId];\r\n    }\r\n\r\n    function getPrice(uint256 _tokenId)\r\n    public\r\n    view\r\n    returns (uint256)\r\n    {\r\n        return price[_tokenId];\r\n    }\r\n\r\n    function getCharge(uint256 _tokenId)\r\n    public\r\n    view\r\n    returns (uint)\r\n    {\r\n        return charge[_tokenId];\r\n    }\r\n    modifier onlyNotUse(uint256 _tokenId){\r\n        require(isUse[_tokenId] == false, \"already used\");\r\n        _;\r\n    }\r\n\r\n    modifier onlyStoreAddressInNfast(uint256 _tokenId){\r\n        require(msg.sender == storeAddress[_tokenId], \"only store address in nfast\");\r\n        _;\r\n    }\r\n}",
  "sourcePath": "C:\\Users\\SSAFY\\Desktop\\sub3-4\\S08P22A307\\smartContract\\contracts\\Nfast.sol",
  "compiler": {
    "name": "solc",
    "version": "0.8.19+commit.7dd6d404.Emscripten.clang"
  },
  "schemaVersion": "3.4.13",
  "updatedAt": "2023-03-28T06:00:58.238Z",
  "networkType": "ethereum",
  "devdoc": {
    "events": {
      "Approval(address,address,uint256)": {
        "details": "Emitted when `owner` enables `approved` to manage the `tokenId` token."
      },
      "ApprovalForAll(address,address,bool)": {
        "details": "Emitted when `owner` enables or disables (`approved`) `operator` to manage all of its assets."
      },
      "Transfer(address,address,uint256)": {
        "details": "Emitted when `tokenId` token is transferred from `from` to `to`."
      }
    },
    "kind": "dev",
    "methods": {
      "approve(address,uint256)": {
        "details": "See {IERC721-approve}."
      },
      "balanceOf(address)": {
        "details": "See {IERC721-balanceOf}."
      },
      "getApproved(uint256)": {
        "details": "See {IERC721-getApproved}."
      },
      "isApprovedForAll(address,address)": {
        "details": "See {IERC721-isApprovedForAll}."
      },
      "name()": {
        "details": "See {IERC721Metadata-name}."
      },
      "ownerOf(uint256)": {
        "details": "See {IERC721-ownerOf}."
      },
      "safeTransferFrom(address,address,uint256)": {
        "details": "See {IERC721-safeTransferFrom}."
      },
      "safeTransferFrom(address,address,uint256,bytes)": {
        "details": "See {IERC721-safeTransferFrom}."
      },
      "setApprovalForAll(address,bool)": {
        "details": "See {IERC721-setApprovalForAll}."
      },
      "supportsInterface(bytes4)": {
        "details": "See {IERC165-supportsInterface}."
      },
      "symbol()": {
        "details": "See {IERC721Metadata-symbol}."
      },
      "tokenURI(uint256)": {
        "details": "See {IERC721Metadata-tokenURI}."
      },
      "transferFrom(address,address,uint256)": {
        "details": "See {IERC721-transferFrom}."
      }
    },
    "version": 1
  },
  "userdoc": {
    "kind": "user",
    "methods": {},
    "version": 1
  }
}