{
  "contractName": "Nfast",
  "abi": [
    {
      "inputs": [
        {
          "internalType": "string",
          "name": "name_",
          "type": "string"
        },
        {
          "internalType": "string",
          "name": "symbol_",
          "type": "string"
        }
      ],
      "stateMutability": "nonpayable",
      "type": "constructor"
    },
    {
      "anonymous": false,
      "inputs": [
        {
          "indexed": true,
          "internalType": "address",
          "name": "owner",
          "type": "address"
        },
        {
          "indexed": true,
          "internalType": "address",
          "name": "approved",
          "type": "address"
        },
        {
          "indexed": true,
          "internalType": "uint256",
          "name": "tokenId",
          "type": "uint256"
        }
      ],
      "name": "Approval",
      "type": "event"
    },
    {
      "anonymous": false,
      "inputs": [
        {
          "indexed": true,
          "internalType": "address",
          "name": "owner",
          "type": "address"
        },
        {
          "indexed": true,
          "internalType": "address",
          "name": "operator",
          "type": "address"
        },
        {
          "indexed": false,
          "internalType": "bool",
          "name": "approved",
          "type": "bool"
        }
      ],
      "name": "ApprovalForAll",
      "type": "event"
    },
    {
      "anonymous": false,
      "inputs": [
        {
          "indexed": true,
          "internalType": "address",
          "name": "_store",
          "type": "address"
        },
        {
          "indexed": false,
          "internalType": "uint256[]",
          "name": "tokenIds",
          "type": "uint256[]"
        }
      ],
      "name": "CreateAll",
      "type": "event"
    },
    {
      "anonymous": false,
      "inputs": [
        {
          "indexed": true,
          "internalType": "address",
          "name": "from",
          "type": "address"
        },
        {
          "indexed": true,
          "internalType": "address",
          "name": "to",
          "type": "address"
        },
        {
          "indexed": true,
          "internalType": "uint256",
          "name": "tokenId",
          "type": "uint256"
        }
      ],
      "name": "Transfer",
      "type": "event"
    },
    {
      "inputs": [
        {
          "internalType": "address",
          "name": "to",
          "type": "address"
        },
        {
          "internalType": "uint256",
          "name": "tokenId",
          "type": "uint256"
        }
      ],
      "name": "approve",
      "outputs": [],
      "stateMutability": "nonpayable",
      "type": "function"
    },
    {
      "inputs": [
        {
          "internalType": "address",
          "name": "owner",
          "type": "address"
        }
      ],
      "name": "balanceOf",
      "outputs": [
        {
          "internalType": "uint256",
          "name": "",
          "type": "uint256"
        }
      ],
      "stateMutability": "view",
      "type": "function",
      "constant": true
    },
    {
      "inputs": [
        {
          "internalType": "uint256",
          "name": "tokenId",
          "type": "uint256"
        }
      ],
      "name": "getApproved",
      "outputs": [
        {
          "internalType": "address",
          "name": "",
          "type": "address"
        }
      ],
      "stateMutability": "view",
      "type": "function",
      "constant": true
    },
    {
      "inputs": [
        {
          "internalType": "address",
          "name": "owner",
          "type": "address"
        },
        {
          "internalType": "address",
          "name": "operator",
          "type": "address"
        }
      ],
      "name": "isApprovedForAll",
      "outputs": [
        {
          "internalType": "bool",
          "name": "",
          "type": "bool"
        }
      ],
      "stateMutability": "view",
      "type": "function",
      "constant": true
    },
    {
      "inputs": [],
      "name": "name",
      "outputs": [
        {
          "internalType": "string",
          "name": "",
          "type": "string"
        }
      ],
      "stateMutability": "view",
      "type": "function",
      "constant": true
    },
    {
      "inputs": [
        {
          "internalType": "uint256",
          "name": "tokenId",
          "type": "uint256"
        }
      ],
      "name": "ownerOf",
      "outputs": [
        {
          "internalType": "address",
          "name": "",
          "type": "address"
        }
      ],
      "stateMutability": "view",
      "type": "function",
      "constant": true
    },
    {
      "inputs": [
        {
          "internalType": "address",
          "name": "from",
          "type": "address"
        },
        {
          "internalType": "address",
          "name": "to",
          "type": "address"
        },
        {
          "internalType": "uint256",
          "name": "tokenId",
          "type": "uint256"
        }
      ],
      "name": "safeTransferFrom",
      "outputs": [],
      "stateMutability": "nonpayable",
      "type": "function"
    },
    {
      "inputs": [
        {
          "internalType": "address",
          "name": "from",
          "type": "address"
        },
        {
          "internalType": "address",
          "name": "to",
          "type": "address"
        },
        {
          "internalType": "uint256",
          "name": "tokenId",
          "type": "uint256"
        },
        {
          "internalType": "bytes",
          "name": "data",
          "type": "bytes"
        }
      ],
      "name": "safeTransferFrom",
      "outputs": [],
      "stateMutability": "nonpayable",
      "type": "function"
    },
    {
      "inputs": [
        {
          "internalType": "address",
          "name": "operator",
          "type": "address"
        },
        {
          "internalType": "bool",
          "name": "approved",
          "type": "bool"
        }
      ],
      "name": "setApprovalForAll",
      "outputs": [],
      "stateMutability": "nonpayable",
      "type": "function"
    },
    {
      "inputs": [
        {
          "internalType": "bytes4",
          "name": "interfaceId",
          "type": "bytes4"
        }
      ],
      "name": "supportsInterface",
      "outputs": [
        {
          "internalType": "bool",
          "name": "",
          "type": "bool"
        }
      ],
      "stateMutability": "view",
      "type": "function",
      "constant": true
    },
    {
      "inputs": [],
      "name": "symbol",
      "outputs": [
        {
          "internalType": "string",
          "name": "",
          "type": "string"
        }
      ],
      "stateMutability": "view",
      "type": "function",
      "constant": true
    },
    {
      "inputs": [
        {
          "internalType": "uint256",
          "name": "tokenId",
          "type": "uint256"
        }
      ],
      "name": "tokenURI",
      "outputs": [
        {
          "internalType": "string",
          "name": "",
          "type": "string"
        }
      ],
      "stateMutability": "view",
      "type": "function",
      "constant": true
    },
    {
      "inputs": [
        {
          "internalType": "address",
          "name": "from",
          "type": "address"
        },
        {
          "internalType": "address",
          "name": "to",
          "type": "address"
        },
        {
          "internalType": "uint256",
          "name": "tokenId",
          "type": "uint256"
        }
      ],
      "name": "transferFrom",
      "outputs": [],
      "stateMutability": "nonpayable",
      "type": "function"
    },
    {
      "inputs": [],
      "name": "current",
      "outputs": [
        {
          "internalType": "uint256",
          "name": "",
          "type": "uint256"
        }
      ],
      "stateMutability": "view",
      "type": "function",
      "constant": true
    },
    {
      "inputs": [
        {
          "internalType": "address",
          "name": "_to",
          "type": "address"
        },
        {
          "internalType": "string",
          "name": "_tokenURI",
          "type": "string"
        },
        {
          "internalType": "address",
          "name": "_storeAddress",
          "type": "address"
        },
        {
          "internalType": "uint256",
          "name": "_date",
          "type": "uint256"
        },
        {
          "internalType": "bool",
          "name": "_mealType",
          "type": "bool"
        },
        {
          "internalType": "uint256",
          "name": "_startTime",
          "type": "uint256"
        },
        {
          "internalType": "uint256",
          "name": "_endTime",
          "type": "uint256"
        },
        {
          "internalType": "uint256",
          "name": "_price",
          "type": "uint256"
        },
        {
          "internalType": "uint256",
          "name": "_charge",
          "type": "uint256"
        }
      ],
      "name": "create",
      "outputs": [
        {
          "internalType": "uint256",
          "name": "",
          "type": "uint256"
        }
      ],
      "stateMutability": "payable",
      "type": "function",
      "payable": true
    },
    {
      "inputs": [
        {
          "internalType": "uint256",
          "name": "_numTokens",
          "type": "uint256"
        },
        {
          "internalType": "address",
          "name": "_to",
          "type": "address"
        },
        {
          "internalType": "string",
          "name": "_tokenURI",
          "type": "string"
        },
        {
          "internalType": "address",
          "name": "_storeAddress",
          "type": "address"
        },
        {
          "internalType": "uint256",
          "name": "_date",
          "type": "uint256"
        },
        {
          "internalType": "bool",
          "name": "_mealType",
          "type": "bool"
        },
        {
          "internalType": "uint256",
          "name": "_startTime",
          "type": "uint256"
        },
        {
          "internalType": "uint256",
          "name": "_endTime",
          "type": "uint256"
        },
        {
          "internalType": "uint256",
          "name": "_price",
          "type": "uint256"
        },
        {
          "internalType": "uint256",
          "name": "_charge",
          "type": "uint256"
        }
      ],
      "name": "createAll",
      "outputs": [
        {
          "internalType": "uint256[]",
          "name": "",
          "type": "uint256[]"
        }
      ],
      "stateMutability": "payable",
      "type": "function",
      "payable": true
    },
    {
      "inputs": [
        {
          "internalType": "uint256",
          "name": "_tokenId",
          "type": "uint256"
        }
      ],
      "name": "setIsUse",
      "outputs": [],
      "stateMutability": "nonpayable",
      "type": "function"
    },
    {
      "inputs": [
        {
          "internalType": "uint256",
          "name": "_tokenId",
          "type": "uint256"
        }
      ],
      "name": "getTokenURI",
      "outputs": [
        {
          "internalType": "string",
          "name": "",
          "type": "string"
        }
      ],
      "stateMutability": "view",
      "type": "function",
      "constant": true
    },
    {
      "inputs": [
        {
          "internalType": "uint256",
          "name": "_tokenId",
          "type": "uint256"
        }
      ],
      "name": "getIsUse",
      "outputs": [
        {
          "internalType": "bool",
          "name": "",
          "type": "bool"
        }
      ],
      "stateMutability": "view",
      "type": "function",
      "constant": true
    },
    {
      "inputs": [
        {
          "internalType": "uint256",
          "name": "_tokenId",
          "type": "uint256"
        }
      ],
      "name": "getStoreAddress",
      "outputs": [
        {
          "internalType": "address",
          "name": "",
          "type": "address"
        }
      ],
      "stateMutability": "view",
      "type": "function",
      "constant": true
    },
    {
      "inputs": [
        {
          "internalType": "uint256",
          "name": "_tokenId",
          "type": "uint256"
        }
      ],
      "name": "getDate",
      "outputs": [
        {
          "internalType": "uint256",
          "name": "",
          "type": "uint256"
        }
      ],
      "stateMutability": "view",
      "type": "function",
      "constant": true
    },
    {
      "inputs": [
        {
          "internalType": "uint256",
          "name": "_tokenId",
          "type": "uint256"
        }
      ],
      "name": "getStartTime",
      "outputs": [
        {
          "internalType": "uint256",
          "name": "",
          "type": "uint256"
        }
      ],
      "stateMutability": "view",
      "type": "function",
      "constant": true
    },
    {
      "inputs": [
        {
          "internalType": "uint256",
          "name": "_tokenId",
          "type": "uint256"
        }
      ],
      "name": "getEndTime",
      "outputs": [
        {
          "internalType": "uint256",
          "name": "",
          "type": "uint256"
        }
      ],
      "stateMutability": "view",
      "type": "function",
      "constant": true
    },
    {
      "inputs": [
        {
          "internalType": "uint256",
          "name": "_tokenId",
          "type": "uint256"
        }
      ],
      "name": "getMealType",
      "outputs": [
        {
          "internalType": "bool",
          "name": "",
          "type": "bool"
        }
      ],
      "stateMutability": "view",
      "type": "function",
      "constant": true
    },
    {
      "inputs": [
        {
          "internalType": "uint256",
          "name": "_tokenId",
          "type": "uint256"
        }
      ],
      "name": "getPrice",
      "outputs": [
        {
          "internalType": "uint256",
          "name": "",
          "type": "uint256"
        }
      ],
      "stateMutability": "view",
      "type": "function",
      "constant": true
    },
    {
      "inputs": [
        {
          "internalType": "uint256",
          "name": "_tokenId",
          "type": "uint256"
        }
      ],
      "name": "getCharge",
      "outputs": [
        {
          "internalType": "uint256",
          "name": "",
          "type": "uint256"
        }
      ],
      "stateMutability": "view",
      "type": "function",
      "constant": true
    }
  ],
  "bytecode": "0x60806040523480156200001157600080fd5b5060405162003b8438038062003b848339818101604052810190620000379190620001fa565b818181600090816200004a9190620004ca565b5080600190816200005c9190620004ca565b5050505050620005b1565b6000604051905090565b600080fd5b600080fd5b600080fd5b600080fd5b6000601f19601f8301169050919050565b7f4e487b7100000000000000000000000000000000000000000000000000000000600052604160045260246000fd5b620000d08262000085565b810181811067ffffffffffffffff82111715620000f257620000f162000096565b5b80604052505050565b60006200010762000067565b9050620001158282620000c5565b919050565b600067ffffffffffffffff82111562000138576200013762000096565b5b620001438262000085565b9050602081019050919050565b60005b838110156200017057808201518184015260208101905062000153565b60008484015250505050565b6000620001936200018d846200011a565b620000fb565b905082815260208101848484011115620001b257620001b162000080565b5b620001bf84828562000150565b509392505050565b600082601f830112620001df57620001de6200007b565b5b8151620001f18482602086016200017c565b91505092915050565b6000806040838503121562000214576200021362000071565b5b600083015167ffffffffffffffff81111562000235576200023462000076565b5b6200024385828601620001c7565b925050602083015167ffffffffffffffff81111562000267576200026662000076565b5b6200027585828601620001c7565b9150509250929050565b600081519050919050565b7f4e487b7100000000000000000000000000000000000000000000000000000000600052602260045260246000fd5b60006002820490506001821680620002d257607f821691505b602082108103620002e857620002e76200028a565b5b50919050565b60008190508160005260206000209050919050565b60006020601f8301049050919050565b600082821b905092915050565b600060088302620003527fffffffffffffffffffffffffffffffffffffffffffffffffffffffffffffffff8262000313565b6200035e868362000313565b95508019841693508086168417925050509392505050565b6000819050919050565b6000819050919050565b6000620003ab620003a56200039f8462000376565b62000380565b62000376565b9050919050565b6000819050919050565b620003c7836200038a565b620003df620003d682620003b2565b84845462000320565b825550505050565b600090565b620003f6620003e7565b62000403818484620003bc565b505050565b5b818110156200042b576200041f600082620003ec565b60018101905062000409565b5050565b601f8211156200047a576200044481620002ee565b6200044f8462000303565b810160208510156200045f578190505b620004776200046e8562000303565b83018262000408565b50505b505050565b600082821c905092915050565b60006200049f600019846008026200047f565b1980831691505092915050565b6000620004ba83836200048c565b9150826002028217905092915050565b620004d5826200027f565b67ffffffffffffffff811115620004f157620004f062000096565b5b620004fd8254620002b9565b6200050a8282856200042f565b600060209050601f8311600181146200054257600084156200052d578287015190505b620005398582620004ac565b865550620005a9565b601f1984166200055286620002ee565b60005b828110156200057c5784890151825560018201915060208501945060208101905062000555565b868310156200059c578489015162000598601f8916826200048c565b8355505b6001600288020188555050505b505050505050565b6135c380620005c16000396000f3fe6080604052600436106101815760003560e01c806370a08231116100d1578063b88d4fde1161008a578063d260c71011610064578063d260c71014610609578063e485260814610639578063e757223014610676578063e985e9c5146106b357610181565b8063b88d4fde14610566578063bc2be1be1461058f578063c87b56dd146105cc57610181565b806370a08231146104305780639067b6771461046d57806395d89b41146104aa5780639fa6a6e3146104d5578063a22cb46514610500578063b82edd5c1461052957610181565b8063288fa5bf1161013e5780633f36aac9116101185780633f36aac91461036457806342842e0e146103a15780636352211e146103ca5780636d1ce87b1461040757610181565b8063288fa5bf146102ad5780632b57298b146102ea5780633bb3a24d1461032757610181565b806301ffc9a71461018657806306fdde03146101c3578063081812fc146101ee578063095ea7b31461022b57806310aeb8911461025457806323b872dd14610284575b600080fd5b34801561019257600080fd5b506101ad60048036038101906101a891906120d6565b6106f0565b6040516101ba919061211e565b60405180910390f35b3480156101cf57600080fd5b506101d86107d2565b6040516101e591906121c9565b60405180910390f35b3480156101fa57600080fd5b5061021560048036038101906102109190612221565b610864565b604051610222919061228f565b60405180910390f35b34801561023757600080fd5b50610252600480360381019061024d91906122d6565b6108aa565b005b61026e600480360381019061026991906123a7565b6109c1565b60405161027b9190612565565b60405180910390f35b34801561029057600080fd5b506102ab60048036038101906102a69190612587565b610b47565b005b3480156102b957600080fd5b506102d460048036038101906102cf9190612221565b610ba7565b6040516102e1919061228f565b60405180910390f35b3480156102f657600080fd5b50610311600480360381019061030c9190612221565b610be4565b60405161031e91906125e9565b60405180910390f35b34801561033357600080fd5b5061034e60048036038101906103499190612221565b610c01565b60405161035b91906121c9565b60405180910390f35b34801561037057600080fd5b5061038b60048036038101906103869190612221565b610ca6565b604051610398919061211e565b60405180910390f35b3480156103ad57600080fd5b506103c860048036038101906103c39190612587565b610cd0565b005b3480156103d657600080fd5b506103f160048036038101906103ec9190612221565b610cf0565b6040516103fe919061228f565b60405180910390f35b34801561041357600080fd5b5061042e60048036038101906104299190612221565b610d76565b005b34801561043c57600080fd5b5061045760048036038101906104529190612604565b610e0e565b60405161046491906125e9565b60405180910390f35b34801561047957600080fd5b50610494600480360381019061048f9190612221565b610ec5565b6040516104a191906125e9565b60405180910390f35b3480156104b657600080fd5b506104bf610ee2565b6040516104cc91906121c9565b60405180910390f35b3480156104e157600080fd5b506104ea610f74565b6040516104f791906125e9565b60405180910390f35b34801561050c57600080fd5b5061052760048036038101906105229190612631565b610f85565b005b34801561053557600080fd5b50610550600480360381019061054b9190612221565b610f9b565b60405161055d91906125e9565b60405180910390f35b34801561057257600080fd5b5061058d600480360381019061058891906127a1565b610fb8565b005b34801561059b57600080fd5b506105b660048036038101906105b19190612221565b61101a565b6040516105c391906125e9565b60405180910390f35b3480156105d857600080fd5b506105f360048036038101906105ee9190612221565b611037565b60405161060091906121c9565b60405180910390f35b610623600480360381019061061e91906128c5565b61109f565b60405161063091906125e9565b60405180910390f35b34801561064557600080fd5b50610660600480360381019061065b9190612221565b611216565b60405161066d919061211e565b60405180910390f35b34801561068257600080fd5b5061069d60048036038101906106989190612221565b611240565b6040516106aa91906125e9565b60405180910390f35b3480156106bf57600080fd5b506106da60048036038101906106d591906129ab565b61125d565b6040516106e7919061211e565b60405180910390f35b60007f80ac58cd000000000000000000000000000000000000000000000000000000007bffffffffffffffffffffffffffffffffffffffffffffffffffffffff1916827bffffffffffffffffffffffffffffffffffffffffffffffffffffffff191614806107bb57507f5b5e139f000000000000000000000000000000000000000000000000000000007bffffffffffffffffffffffffffffffffffffffffffffffffffffffff1916827bffffffffffffffffffffffffffffffffffffffffffffffffffffffff1916145b806107cb57506107ca826112f1565b5b9050919050565b6060600080546107e190612a1a565b80601f016020809104026020016040519081016040528092919081815260200182805461080d90612a1a565b801561085a5780601f1061082f5761010080835404028352916020019161085a565b820191906000526020600020905b81548152906001019060200180831161083d57829003601f168201915b5050505050905090565b600061086f8261135b565b6004600083815260200190815260200160002060009054906101000a900473ffffffffffffffffffffffffffffffffffffffff169050919050565b60006108b582610cf0565b90508073ffffffffffffffffffffffffffffffffffffffff168373ffffffffffffffffffffffffffffffffffffffff1603610925576040517f08c379a000000000000000000000000000000000000000000000000000000000815260040161091c90612abd565b60405180910390fd5b8073ffffffffffffffffffffffffffffffffffffffff166109446113a6565b73ffffffffffffffffffffffffffffffffffffffff16148061097357506109728161096d6113a6565b61125d565b5b6109b2576040517f08c379a00000000000000000000000000000000000000000000000000000000081526004016109a990612b4f565b60405180910390fd5b6109bc83836113ae565b505050565b606060008c11610a06576040517f08c379a00000000000000000000000000000000000000000000000000000000081526004016109fd90612be1565b60405180910390fd5b60008c67ffffffffffffffff811115610a2257610a21612676565b5b604051908082528060200260200182016040528015610a505781602001602082028036833780820191505090505b50905060005b8d811015610ae557610ab38d8d8d8080601f016020809104026020016040519081016040528093929190818152602001838380828437600081840152601f19601f820116905080830192505050505050508c8c8c8c8c8c8c61109f565b828281518110610ac657610ac5612c01565b5b6020026020010181815250508080610add90612c5f565b915050610a56565b508873ffffffffffffffffffffffffffffffffffffffff167fab3083391fb519041cb2f305a7129d3c42523f051adb3757fc569243e530d64382604051610b2c9190612565565b60405180910390a2809150509b9a5050505050505050505050565b610b58610b526113a6565b82611467565b610b97576040517f08c379a0000000000000000000000000000000000000000000000000000000008152600401610b8e90612d19565b60405180910390fd5b610ba28383836114fc565b505050565b60006009600083815260200190815260200160002060009054906101000a900473ffffffffffffffffffffffffffffffffffffffff169050919050565b6000600a6000838152602001908152602001600020549050919050565b6060600760008381526020019081526020016000208054610c2190612a1a565b80601f0160208091040260200160405190810160405280929190818152602001828054610c4d90612a1a565b8015610c9a5780601f10610c6f57610100808354040283529160200191610c9a565b820191906000526020600020905b815481529060010190602001808311610c7d57829003601f168201915b50505050509050919050565b6000600d600083815260200190815260200160002060009054906101000a900460ff169050919050565b610ceb83838360405180602001604052806000815250610fb8565b505050565b600080610cfc836117f5565b9050600073ffffffffffffffffffffffffffffffffffffffff168173ffffffffffffffffffffffffffffffffffffffff1603610d6d576040517f08c379a0000000000000000000000000000000000000000000000000000000008152600401610d6490612d85565b60405180910390fd5b80915050919050565b80600015156008600083815260200190815260200160002060009054906101000a900460ff16151514610dde576040517f08c379a0000000000000000000000000000000000000000000000000000000008152600401610dd590612df1565b60405180910390fd5b60016008600084815260200190815260200160002060006101000a81548160ff0219169083151502179055505050565b60008073ffffffffffffffffffffffffffffffffffffffff168273ffffffffffffffffffffffffffffffffffffffff1603610e7e576040517f08c379a0000000000000000000000000000000000000000000000000000000008152600401610e7590612e83565b60405180910390fd5b600360008373ffffffffffffffffffffffffffffffffffffffff1673ffffffffffffffffffffffffffffffffffffffff168152602001908152602001600020549050919050565b6000600c6000838152602001908152602001600020549050919050565b606060018054610ef190612a1a565b80601f0160208091040260200160405190810160405280929190818152602001828054610f1d90612a1a565b8015610f6a5780601f10610f3f57610100808354040283529160200191610f6a565b820191906000526020600020905b815481529060010190602001808311610f4d57829003601f168201915b5050505050905090565b6000610f806006611832565b905090565b610f97610f906113a6565b8383611840565b5050565b6000600f6000838152602001908152602001600020549050919050565b610fc9610fc36113a6565b83611467565b611008576040517f08c379a0000000000000000000000000000000000000000000000000000000008152600401610fff90612d19565b60405180910390fd5b611014848484846119ac565b50505050565b6000600b6000838152602001908152602001600020549050919050565b60606110428261135b565b600061104c611a08565b9050600081511161106c5760405180602001604052806000815250611097565b8061107684611a1f565b604051602001611087929190612edf565b6040516020818303038152906040525b915050919050565b60006110ab6006611aed565b60006110b76006611832565b90506110c38982611b03565b896007600083815260200190815260200160002090816110e391906130af565b5060006008600083815260200190815260200160002060006101000a81548160ff021916908315150217905550886009600083815260200190815260200160002060006101000a81548173ffffffffffffffffffffffffffffffffffffffff021916908373ffffffffffffffffffffffffffffffffffffffff16021790555087600a60008381526020019081526020016000208190555085600b60008381526020019081526020016000208190555084600c60008381526020019081526020016000208190555086600d600083815260200190815260200160002060006101000a81548160ff02191690831515021790555083600e60008381526020019081526020016000208190555082600f600083815260200190815260200160002081905550809150509998505050505050505050565b60006008600083815260200190815260200160002060009054906101000a900460ff169050919050565b6000600e6000838152602001908152602001600020549050919050565b6000600560008473ffffffffffffffffffffffffffffffffffffffff1673ffffffffffffffffffffffffffffffffffffffff16815260200190815260200160002060008373ffffffffffffffffffffffffffffffffffffffff1673ffffffffffffffffffffffffffffffffffffffff16815260200190815260200160002060009054906101000a900460ff16905092915050565b60007f01ffc9a7000000000000000000000000000000000000000000000000000000007bffffffffffffffffffffffffffffffffffffffffffffffffffffffff1916827bffffffffffffffffffffffffffffffffffffffffffffffffffffffff1916149050919050565b61136481611d20565b6113a3576040517f08c379a000000000000000000000000000000000000000000000000000000000815260040161139a90612d85565b60405180910390fd5b50565b600033905090565b816004600083815260200190815260200160002060006101000a81548173ffffffffffffffffffffffffffffffffffffffff021916908373ffffffffffffffffffffffffffffffffffffffff160217905550808273ffffffffffffffffffffffffffffffffffffffff1661142183610cf0565b73ffffffffffffffffffffffffffffffffffffffff167f8c5be1e5ebec7d5bd14f71427d1e84f3dd0314c0f7b2291e5b200ac8c7c3b92560405160405180910390a45050565b60008061147383610cf0565b90508073ffffffffffffffffffffffffffffffffffffffff168473ffffffffffffffffffffffffffffffffffffffff1614806114b557506114b4818561125d565b5b806114f357508373ffffffffffffffffffffffffffffffffffffffff166114db84610864565b73ffffffffffffffffffffffffffffffffffffffff16145b91505092915050565b8273ffffffffffffffffffffffffffffffffffffffff1661151c82610cf0565b73ffffffffffffffffffffffffffffffffffffffff1614611572576040517f08c379a0000000000000000000000000000000000000000000000000000000008152600401611569906131f3565b60405180910390fd5b600073ffffffffffffffffffffffffffffffffffffffff168273ffffffffffffffffffffffffffffffffffffffff16036115e1576040517f08c379a00000000000000000000000000000000000000000000000000000000081526004016115d890613285565b60405180910390fd5b6115ee8383836001611d61565b8273ffffffffffffffffffffffffffffffffffffffff1661160e82610cf0565b73ffffffffffffffffffffffffffffffffffffffff1614611664576040517f08c379a000000000000000000000000000000000000000000000000000000000815260040161165b906131f3565b60405180910390fd5b6004600082815260200190815260200160002060006101000a81549073ffffffffffffffffffffffffffffffffffffffff02191690556001600360008573ffffffffffffffffffffffffffffffffffffffff1673ffffffffffffffffffffffffffffffffffffffff168152602001908152602001600020600082825403925050819055506001600360008473ffffffffffffffffffffffffffffffffffffffff1673ffffffffffffffffffffffffffffffffffffffff16815260200190815260200160002060008282540192505081905550816002600083815260200190815260200160002060006101000a81548173ffffffffffffffffffffffffffffffffffffffff021916908373ffffffffffffffffffffffffffffffffffffffff160217905550808273ffffffffffffffffffffffffffffffffffffffff168473ffffffffffffffffffffffffffffffffffffffff167fddf252ad1be2c89b69c2b068fc378daa952ba7f163c4a11628f55a4df523b3ef60405160405180910390a46117f08383836001611d67565b505050565b60006002600083815260200190815260200160002060009054906101000a900473ffffffffffffffffffffffffffffffffffffffff169050919050565b600081600001549050919050565b8173ffffffffffffffffffffffffffffffffffffffff168373ffffffffffffffffffffffffffffffffffffffff16036118ae576040517f08c379a00000000000000000000000000000000000000000000000000000000081526004016118a5906132f1565b60405180910390fd5b80600560008573ffffffffffffffffffffffffffffffffffffffff1673ffffffffffffffffffffffffffffffffffffffff16815260200190815260200160002060008473ffffffffffffffffffffffffffffffffffffffff1673ffffffffffffffffffffffffffffffffffffffff16815260200190815260200160002060006101000a81548160ff0219169083151502179055508173ffffffffffffffffffffffffffffffffffffffff168373ffffffffffffffffffffffffffffffffffffffff167f17307eab39ab6107e8899845ad3d59bd9653f200f220920489ca2b5937696c318360405161199f919061211e565b60405180910390a3505050565b6119b78484846114fc565b6119c384848484611d6d565b611a02576040517f08c379a00000000000000000000000000000000000000000000000000000000081526004016119f990613383565b60405180910390fd5b50505050565b606060405180602001604052806000815250905090565b606060006001611a2e84611ef4565b01905060008167ffffffffffffffff811115611a4d57611a4c612676565b5b6040519080825280601f01601f191660200182016040528015611a7f5781602001600182028036833780820191505090505b509050600082602001820190505b600115611ae2578080600190039150507f3031323334353637383961626364656600000000000000000000000000000000600a86061a8153600a8581611ad657611ad56133a3565b5b04945060008503611a8d575b819350505050919050565b6001816000016000828254019250508190555050565b600073ffffffffffffffffffffffffffffffffffffffff168273ffffffffffffffffffffffffffffffffffffffff1603611b72576040517f08c379a0000000000000000000000000000000000000000000000000000000008152600401611b699061341e565b60405180910390fd5b611b7b81611d20565b15611bbb576040517f08c379a0000000000000000000000000000000000000000000000000000000008152600401611bb29061348a565b60405180910390fd5b611bc9600083836001611d61565b611bd281611d20565b15611c12576040517f08c379a0000000000000000000000000000000000000000000000000000000008152600401611c099061348a565b60405180910390fd5b6001600360008473ffffffffffffffffffffffffffffffffffffffff1673ffffffffffffffffffffffffffffffffffffffff16815260200190815260200160002060008282540192505081905550816002600083815260200190815260200160002060006101000a81548173ffffffffffffffffffffffffffffffffffffffff021916908373ffffffffffffffffffffffffffffffffffffffff160217905550808273ffffffffffffffffffffffffffffffffffffffff16600073ffffffffffffffffffffffffffffffffffffffff167fddf252ad1be2c89b69c2b068fc378daa952ba7f163c4a11628f55a4df523b3ef60405160405180910390a4611d1c600083836001611d67565b5050565b60008073ffffffffffffffffffffffffffffffffffffffff16611d42836117f5565b73ffffffffffffffffffffffffffffffffffffffff1614159050919050565b50505050565b50505050565b6000611d8e8473ffffffffffffffffffffffffffffffffffffffff16612047565b15611ee7578373ffffffffffffffffffffffffffffffffffffffff1663150b7a02611db76113a6565b8786866040518563ffffffff1660e01b8152600401611dd994939291906134ff565b6020604051808303816000875af1925050508015611e1557506040513d601f19601f82011682018060405250810190611e129190613560565b60015b611e97573d8060008114611e45576040519150601f19603f3d011682016040523d82523d6000602084013e611e4a565b606091505b506000815103611e8f576040517f08c379a0000000000000000000000000000000000000000000000000000000008152600401611e8690613383565b60405180910390fd5b805181602001fd5b63150b7a0260e01b7bffffffffffffffffffffffffffffffffffffffffffffffffffffffff1916817bffffffffffffffffffffffffffffffffffffffffffffffffffffffff191614915050611eec565b600190505b949350505050565b600080600090507a184f03e93ff9f4daa797ed6e38ed64bf6a1f0100000000000000008310611f52577a184f03e93ff9f4daa797ed6e38ed64bf6a1f0100000000000000008381611f4857611f476133a3565b5b0492506040810190505b6d04ee2d6d415b85acef81000000008310611f8f576d04ee2d6d415b85acef81000000008381611f8557611f846133a3565b5b0492506020810190505b662386f26fc100008310611fbe57662386f26fc100008381611fb457611fb36133a3565b5b0492506010810190505b6305f5e1008310611fe7576305f5e1008381611fdd57611fdc6133a3565b5b0492506008810190505b612710831061200c576127108381612002576120016133a3565b5b0492506004810190505b6064831061202f5760648381612025576120246133a3565b5b0492506002810190505b600a831061203e576001810190505b80915050919050565b6000808273ffffffffffffffffffffffffffffffffffffffff163b119050919050565b6000604051905090565b600080fd5b600080fd5b60007fffffffff0000000000000000000000000000000000000000000000000000000082169050919050565b6120b38161207e565b81146120be57600080fd5b50565b6000813590506120d0816120aa565b92915050565b6000602082840312156120ec576120eb612074565b5b60006120fa848285016120c1565b91505092915050565b60008115159050919050565b61211881612103565b82525050565b6000602082019050612133600083018461210f565b92915050565b600081519050919050565b600082825260208201905092915050565b60005b83811015612173578082015181840152602081019050612158565b60008484015250505050565b6000601f19601f8301169050919050565b600061219b82612139565b6121a58185612144565b93506121b5818560208601612155565b6121be8161217f565b840191505092915050565b600060208201905081810360008301526121e38184612190565b905092915050565b6000819050919050565b6121fe816121eb565b811461220957600080fd5b50565b60008135905061221b816121f5565b92915050565b60006020828403121561223757612236612074565b5b60006122458482850161220c565b91505092915050565b600073ffffffffffffffffffffffffffffffffffffffff82169050919050565b60006122798261224e565b9050919050565b6122898161226e565b82525050565b60006020820190506122a46000830184612280565b92915050565b6122b38161226e565b81146122be57600080fd5b50565b6000813590506122d0816122aa565b92915050565b600080604083850312156122ed576122ec612074565b5b60006122fb858286016122c1565b925050602061230c8582860161220c565b9150509250929050565b600080fd5b600080fd5b600080fd5b60008083601f84011261233b5761233a612316565b5b8235905067ffffffffffffffff8111156123585761235761231b565b5b60208301915083600182028301111561237457612373612320565b5b9250929050565b61238481612103565b811461238f57600080fd5b50565b6000813590506123a18161237b565b92915050565b60008060008060008060008060008060006101408c8e0312156123cd576123cc612074565b5b60006123db8e828f0161220c565b9b505060206123ec8e828f016122c1565b9a505060408c013567ffffffffffffffff81111561240d5761240c612079565b5b6124198e828f01612325565b9950995050606061242c8e828f016122c1565b975050608061243d8e828f0161220c565b96505060a061244e8e828f01612392565b95505060c061245f8e828f0161220c565b94505060e06124708e828f0161220c565b9350506101006124828e828f0161220c565b9250506101206124948e828f0161220c565b9150509295989b509295989b9093969950565b600081519050919050565b600082825260208201905092915050565b6000819050602082019050919050565b6124dc816121eb565b82525050565b60006124ee83836124d3565b60208301905092915050565b6000602082019050919050565b6000612512826124a7565b61251c81856124b2565b9350612527836124c3565b8060005b8381101561255857815161253f88826124e2565b975061254a836124fa565b92505060018101905061252b565b5085935050505092915050565b6000602082019050818103600083015261257f8184612507565b905092915050565b6000806000606084860312156125a05761259f612074565b5b60006125ae868287016122c1565b93505060206125bf868287016122c1565b92505060406125d08682870161220c565b9150509250925092565b6125e3816121eb565b82525050565b60006020820190506125fe60008301846125da565b92915050565b60006020828403121561261a57612619612074565b5b6000612628848285016122c1565b91505092915050565b6000806040838503121561264857612647612074565b5b6000612656858286016122c1565b925050602061266785828601612392565b9150509250929050565b600080fd5b7f4e487b7100000000000000000000000000000000000000000000000000000000600052604160045260246000fd5b6126ae8261217f565b810181811067ffffffffffffffff821117156126cd576126cc612676565b5b80604052505050565b60006126e061206a565b90506126ec82826126a5565b919050565b600067ffffffffffffffff82111561270c5761270b612676565b5b6127158261217f565b9050602081019050919050565b82818337600083830152505050565b600061274461273f846126f1565b6126d6565b9050828152602081018484840111156127605761275f612671565b5b61276b848285612722565b509392505050565b600082601f83011261278857612787612316565b5b8135612798848260208601612731565b91505092915050565b600080600080608085870312156127bb576127ba612074565b5b60006127c9878288016122c1565b94505060206127da878288016122c1565b93505060406127eb8782880161220c565b925050606085013567ffffffffffffffff81111561280c5761280b612079565b5b61281887828801612773565b91505092959194509250565b600067ffffffffffffffff82111561283f5761283e612676565b5b6128488261217f565b9050602081019050919050565b600061286861286384612824565b6126d6565b90508281526020810184848401111561288457612883612671565b5b61288f848285612722565b509392505050565b600082601f8301126128ac576128ab612316565b5b81356128bc848260208601612855565b91505092915050565b60008060008060008060008060006101208a8c0312156128e8576128e7612074565b5b60006128f68c828d016122c1565b99505060208a013567ffffffffffffffff81111561291757612916612079565b5b6129238c828d01612897565b98505060406129348c828d016122c1565b97505060606129458c828d0161220c565b96505060806129568c828d01612392565b95505060a06129678c828d0161220c565b94505060c06129788c828d0161220c565b93505060e06129898c828d0161220c565b92505061010061299b8c828d0161220c565b9150509295985092959850929598565b600080604083850312156129c2576129c1612074565b5b60006129d0858286016122c1565b92505060206129e1858286016122c1565b9150509250929050565b7f4e487b7100000000000000000000000000000000000000000000000000000000600052602260045260246000fd5b60006002820490506001821680612a3257607f821691505b602082108103612a4557612a446129eb565b5b50919050565b7f4552433732313a20617070726f76616c20746f2063757272656e74206f776e6560008201527f7200000000000000000000000000000000000000000000000000000000000000602082015250565b6000612aa7602183612144565b9150612ab282612a4b565b604082019050919050565b60006020820190508181036000830152612ad681612a9a565b9050919050565b7f4552433732313a20617070726f76652063616c6c6572206973206e6f7420746f60008201527f6b656e206f776e6572206f7220617070726f76656420666f7220616c6c000000602082015250565b6000612b39603d83612144565b9150612b4482612add565b604082019050919050565b60006020820190508181036000830152612b6881612b2c565b9050919050565b7f4e756d626572206f6620746f6b656e73206d757374206265206772656174657260008201527f207468616e207a65726f00000000000000000000000000000000000000000000602082015250565b6000612bcb602a83612144565b9150612bd682612b6f565b604082019050919050565b60006020820190508181036000830152612bfa81612bbe565b9050919050565b7f4e487b7100000000000000000000000000000000000000000000000000000000600052603260045260246000fd5b7f4e487b7100000000000000000000000000000000000000000000000000000000600052601160045260246000fd5b6000612c6a826121eb565b91507fffffffffffffffffffffffffffffffffffffffffffffffffffffffffffffffff8203612c9c57612c9b612c30565b5b600182019050919050565b7f4552433732313a2063616c6c6572206973206e6f7420746f6b656e206f776e6560008201527f72206f7220617070726f76656400000000000000000000000000000000000000602082015250565b6000612d03602d83612144565b9150612d0e82612ca7565b604082019050919050565b60006020820190508181036000830152612d3281612cf6565b9050919050565b7f4552433732313a20696e76616c696420746f6b656e2049440000000000000000600082015250565b6000612d6f601883612144565b9150612d7a82612d39565b602082019050919050565b60006020820190508181036000830152612d9e81612d62565b9050919050565b7f616c726561647920757365640000000000000000000000000000000000000000600082015250565b6000612ddb600c83612144565b9150612de682612da5565b602082019050919050565b60006020820190508181036000830152612e0a81612dce565b9050919050565b7f4552433732313a2061646472657373207a65726f206973206e6f74206120766160008201527f6c6964206f776e65720000000000000000000000000000000000000000000000602082015250565b6000612e6d602983612144565b9150612e7882612e11565b604082019050919050565b60006020820190508181036000830152612e9c81612e60565b9050919050565b600081905092915050565b6000612eb982612139565b612ec38185612ea3565b9350612ed3818560208601612155565b80840191505092915050565b6000612eeb8285612eae565b9150612ef78284612eae565b91508190509392505050565b60008190508160005260206000209050919050565b60006020601f8301049050919050565b600082821b905092915050565b600060088302612f657fffffffffffffffffffffffffffffffffffffffffffffffffffffffffffffffff82612f28565b612f6f8683612f28565b95508019841693508086168417925050509392505050565b6000819050919050565b6000612fac612fa7612fa2846121eb565b612f87565b6121eb565b9050919050565b6000819050919050565b612fc683612f91565b612fda612fd282612fb3565b848454612f35565b825550505050565b600090565b612fef612fe2565b612ffa818484612fbd565b505050565b5b8181101561301e57613013600082612fe7565b600181019050613000565b5050565b601f8211156130635761303481612f03565b61303d84612f18565b8101602085101561304c578190505b61306061305885612f18565b830182612fff565b50505b505050565b600082821c905092915050565b600061308660001984600802613068565b1980831691505092915050565b600061309f8383613075565b9150826002028217905092915050565b6130b882612139565b67ffffffffffffffff8111156130d1576130d0612676565b5b6130db8254612a1a565b6130e6828285613022565b600060209050601f8311600181146131195760008415613107578287015190505b6131118582613093565b865550613179565b601f19841661312786612f03565b60005b8281101561314f5784890151825560018201915060208501945060208101905061312a565b8683101561316c5784890151613168601f891682613075565b8355505b6001600288020188555050505b505050505050565b7f4552433732313a207472616e736665722066726f6d20696e636f72726563742060008201527f6f776e6572000000000000000000000000000000000000000000000000000000602082015250565b60006131dd602583612144565b91506131e882613181565b604082019050919050565b6000602082019050818103600083015261320c816131d0565b9050919050565b7f4552433732313a207472616e7366657220746f20746865207a65726f2061646460008201527f7265737300000000000000000000000000000000000000000000000000000000602082015250565b600061326f602483612144565b915061327a82613213565b604082019050919050565b6000602082019050818103600083015261329e81613262565b9050919050565b7f4552433732313a20617070726f766520746f2063616c6c657200000000000000600082015250565b60006132db601983612144565b91506132e6826132a5565b602082019050919050565b6000602082019050818103600083015261330a816132ce565b9050919050565b7f4552433732313a207472616e7366657220746f206e6f6e20455243373231526560008201527f63656976657220696d706c656d656e7465720000000000000000000000000000602082015250565b600061336d603283612144565b915061337882613311565b604082019050919050565b6000602082019050818103600083015261339c81613360565b9050919050565b7f4e487b7100000000000000000000000000000000000000000000000000000000600052601260045260246000fd5b7f4552433732313a206d696e7420746f20746865207a65726f2061646472657373600082015250565b6000613408602083612144565b9150613413826133d2565b602082019050919050565b60006020820190508181036000830152613437816133fb565b9050919050565b7f4552433732313a20746f6b656e20616c7265616479206d696e74656400000000600082015250565b6000613474601c83612144565b915061347f8261343e565b602082019050919050565b600060208201905081810360008301526134a381613467565b9050919050565b600081519050919050565b600082825260208201905092915050565b60006134d1826134aa565b6134db81856134b5565b93506134eb818560208601612155565b6134f48161217f565b840191505092915050565b60006080820190506135146000830187612280565b6135216020830186612280565b61352e60408301856125da565b818103606083015261354081846134c6565b905095945050505050565b60008151905061355a816120aa565b92915050565b60006020828403121561357657613575612074565b5b60006135848482850161354b565b9150509291505056fea2646970667358221220a6c100ef6188d2542e063a356e0e2a1997e344d599d73fdd2fd3a750c34202e664736f6c63430008130033",
  "immutableReferences": {},
  "source": "// SPDX-License-Identifier: MIT\r\npragma solidity ^0.8.4;\r\n\r\nimport \"@openzeppelin/contracts/token/ERC721/ERC721.sol\";\r\nimport \"@openzeppelin/contracts/utils/Counters.sol\";\r\n//import \"./token/ERC721/ERC721.sol\";\r\n//import \"../node_modules/@openzeppelin/contracts/utils/Counters.sol\";\r\n\r\ncontract Nfast is ERC721 {\r\n    using Counters for Counters.Counter;\r\n\r\n    Counters.Counter private tokenIds;\r\n    //URI  \r\n    //{ , , , }  ipfs \r\n    mapping(uint256 => string) tokenURIs;\r\n    //\r\n    mapping(uint256 => bool) isUse;\r\n    // \r\n    mapping(uint256 => address) storeAddress;\r\n    //\r\n    mapping(uint256 => uint256) date;\r\n    //\r\n    mapping(uint256 => uint256) startTime;\r\n    //\r\n    mapping(uint256 => uint256) endTime;\r\n    //,  \r\n    mapping(uint256 => bool) mealType;\r\n    //\r\n    mapping(uint256 => uint256) price;\r\n    //\r\n    mapping(uint256 => uint) charge;\r\n\r\n    event CreateAll(address indexed _store, uint256[] tokenIds);\r\n\r\n    constructor(string memory name_, string memory symbol_)\r\n    ERC721(name_, symbol_)\r\n    {\r\n    }\r\n\r\n    function current() public view returns (uint256) {\r\n        return tokenIds.current();\r\n    }\r\n\r\n    function create(address _to, string memory _tokenURI, address _storeAddress, uint256 _date, bool _mealType, uint256 _startTime, uint256 _endTime, uint256 _price, uint _charge)\r\n    public\r\n    payable\r\n    returns (uint256)\r\n    {\r\n\r\n        tokenIds.increment();\r\n        uint256 newTokenId = tokenIds.current();\r\n        _mint(_storeAddress, newTokenId);\r\n\r\n        tokenURIs[newTokenId] = _tokenURI;\r\n        isUse[newTokenId] = false;\r\n        storeAddress[newTokenId] = _storeAddress;\r\n        date[newTokenId] = _date;\r\n        startTime[newTokenId] = _startTime;\r\n        endTime[newTokenId] = _endTime;\r\n        mealType[newTokenId] = _mealType;\r\n        price[newTokenId] = _price;\r\n        charge[newTokenId] = _charge;\r\n\r\n        //  \r\n        //        approve(_to, newTokenId);\r\n        return newTokenId;\r\n    }\r\n\r\n    function createAll(uint256 _numTokens, address  _to, string  calldata _tokenURI, address  _storeAddress, uint256  _date, bool  _mealType, uint256  _startTime, uint256  _endTime, uint256  _price, uint256  _charge\r\n    )\r\n    public\r\n    payable\r\n    returns (uint256[] memory) {\r\n        require(_numTokens > 0, \"Number of tokens must be greater than zero\");\r\n\r\n        uint256[] memory returnTokenIds = new uint256[](_numTokens);\r\n\r\n        for (uint256 i = 0; i < _numTokens; i++) {\r\n            returnTokenIds[i] = create(\r\n                _to,\r\n                _tokenURI,\r\n                _storeAddress,\r\n                _date,\r\n                _mealType,\r\n                _startTime,\r\n                _endTime,\r\n                _price,\r\n                _charge\r\n            );\r\n        }\r\n\r\n        emit CreateAll(_storeAddress,returnTokenIds);\r\n        return returnTokenIds;\r\n    }\r\n\r\n    function _burn(uint256 _tokenId)\r\n    internal\r\n    virtual\r\n    override {\r\n        super._burn(_tokenId);\r\n    }\r\n\r\n    function setIsUse(uint256 _tokenId)\r\n    public\r\n    onlyNotUse(_tokenId) {\r\n        isUse[_tokenId] = true;\r\n    }\r\n\r\n    function getTokenURI(uint256 _tokenId)\r\n    public\r\n    view\r\n    returns (string memory)\r\n    {\r\n        return tokenURIs[_tokenId];\r\n    }\r\n\r\n    function getIsUse(uint256 _tokenId)\r\n    public\r\n    view\r\n    returns (bool)\r\n    {\r\n        return isUse[_tokenId];\r\n    }\r\n\r\n    function getStoreAddress(uint256 _tokenId)\r\n    public\r\n    view\r\n    returns (address)\r\n    {\r\n        return storeAddress[_tokenId];\r\n    }\r\n\r\n    function getDate(uint256 _tokenId)\r\n    public\r\n    view\r\n    returns (uint256)\r\n    {\r\n        return date[_tokenId];\r\n    }\r\n\r\n    function getStartTime(uint256 _tokenId)\r\n    public\r\n    view\r\n    returns (uint256)\r\n    {\r\n        return startTime[_tokenId];\r\n    }\r\n\r\n    function getEndTime(uint256 _tokenId)\r\n    public\r\n    view\r\n    returns (uint256)\r\n    {\r\n        return endTime[_tokenId];\r\n    }\r\n\r\n    function getMealType(uint256 _tokenId)\r\n    public\r\n    view\r\n    returns (bool)\r\n    {\r\n        return mealType[_tokenId];\r\n    }\r\n\r\n    function getPrice(uint256 _tokenId)\r\n    public\r\n    view\r\n    returns (uint256)\r\n    {\r\n        return price[_tokenId];\r\n    }\r\n\r\n    function getCharge(uint256 _tokenId)\r\n    public\r\n    view\r\n    returns (uint)\r\n    {\r\n        return charge[_tokenId];\r\n    }\r\n    modifier onlyNotUse(uint256 _tokenId){\r\n        require(isUse[_tokenId] == false, \"already used\");\r\n        _;\r\n    }\r\n\r\n    modifier onlyStoreAddressInNfast(uint256 _tokenId){\r\n        require(msg.sender == storeAddress[_tokenId], \"only store address in nfast\");\r\n        _;\r\n    }\r\n}",
  "sourcePath": "C:\\ssafy\\git\\S08P22A307\\smartContract\\contracts\\Nfast.sol",
  "compiler": {
    "name": "solc",
    "version": "0.8.19+commit.7dd6d404.Emscripten.clang"
  },
  "schemaVersion": "3.4.12",
  "updatedAt": "2023-03-30T08:09:24.412Z",
  "networkType": "ethereum",
  "devdoc": {
    "events": {
      "Approval(address,address,uint256)": {
        "details": "Emitted when `owner` enables `approved` to manage the `tokenId` token."
      },
      "ApprovalForAll(address,address,bool)": {
        "details": "Emitted when `owner` enables or disables (`approved`) `operator` to manage all of its assets."
      },
      "Transfer(address,address,uint256)": {
        "details": "Emitted when `tokenId` token is transferred from `from` to `to`."
      }
    },
    "kind": "dev",
    "methods": {
      "approve(address,uint256)": {
        "details": "See {IERC721-approve}."
      },
      "balanceOf(address)": {
        "details": "See {IERC721-balanceOf}."
      },
      "getApproved(uint256)": {
        "details": "See {IERC721-getApproved}."
      },
      "isApprovedForAll(address,address)": {
        "details": "See {IERC721-isApprovedForAll}."
      },
      "name()": {
        "details": "See {IERC721Metadata-name}."
      },
      "ownerOf(uint256)": {
        "details": "See {IERC721-ownerOf}."
      },
      "safeTransferFrom(address,address,uint256)": {
        "details": "See {IERC721-safeTransferFrom}."
      },
      "safeTransferFrom(address,address,uint256,bytes)": {
        "details": "See {IERC721-safeTransferFrom}."
      },
      "setApprovalForAll(address,bool)": {
        "details": "See {IERC721-setApprovalForAll}."
      },
      "supportsInterface(bytes4)": {
        "details": "See {IERC165-supportsInterface}."
      },
      "symbol()": {
        "details": "See {IERC721Metadata-symbol}."
      },
      "tokenURI(uint256)": {
        "details": "See {IERC721Metadata-tokenURI}."
      },
      "transferFrom(address,address,uint256)": {
        "details": "See {IERC721-transferFrom}."
      }
    },
    "version": 1
  },
  "userdoc": {
    "kind": "user",
    "methods": {},
    "version": 1
  }
}