{
  "contractName": "SaleFactory",
  "abi": [
    {
      "inputs": [
        {
          "internalType": "address",
          "name": "_nftAddress",
          "type": "address"
        },
        {
          "internalType": "address",
          "name": "_tokenAddress",
          "type": "address"
        }
      ],
      "stateMutability": "nonpayable",
      "type": "constructor"
    },
    {
      "anonymous": false,
      "inputs": [
        {
          "indexed": true,
          "internalType": "address",
          "name": "_saleContract",
          "type": "address"
        },
        {
          "indexed": true,
          "internalType": "address",
          "name": "_owner",
          "type": "address"
        },
        {
          "indexed": false,
          "internalType": "uint256",
          "name": "_workId",
          "type": "uint256"
        }
      ],
      "name": "NewSale",
      "type": "event"
    },
    {
      "anonymous": false,
      "inputs": [
        {
          "indexed": true,
          "internalType": "address",
          "name": "previousOwner",
          "type": "address"
        },
        {
          "indexed": true,
          "internalType": "address",
          "name": "newOwner",
          "type": "address"
        }
      ],
      "name": "OwnershipTransferred",
      "type": "event"
    },
    {
      "inputs": [],
      "name": "admin",
      "outputs": [
        {
          "internalType": "address",
          "name": "",
          "type": "address"
        }
      ],
      "stateMutability": "view",
      "type": "function",
      "constant": true
    },
    {
      "inputs": [],
      "name": "owner",
      "outputs": [
        {
          "internalType": "address",
          "name": "",
          "type": "address"
        }
      ],
      "stateMutability": "view",
      "type": "function",
      "constant": true
    },
    {
      "inputs": [],
      "name": "renounceOwnership",
      "outputs": [],
      "stateMutability": "nonpayable",
      "type": "function"
    },
    {
      "inputs": [
        {
          "internalType": "uint256",
          "name": "",
          "type": "uint256"
        }
      ],
      "name": "sales",
      "outputs": [
        {
          "internalType": "address",
          "name": "",
          "type": "address"
        }
      ],
      "stateMutability": "view",
      "type": "function",
      "constant": true
    },
    {
      "inputs": [
        {
          "internalType": "address",
          "name": "newOwner",
          "type": "address"
        }
      ],
      "name": "transferOwnership",
      "outputs": [],
      "stateMutability": "nonpayable",
      "type": "function"
    },
    {
      "inputs": [
        {
          "internalType": "uint256[]",
          "name": "_nftIds",
          "type": "uint256[]"
        },
        {
          "internalType": "uint256",
          "name": "_price",
          "type": "uint256"
        },
        {
          "internalType": "uint256",
          "name": "_startTime",
          "type": "uint256"
        },
        {
          "internalType": "uint256",
          "name": "_endTime",
          "type": "uint256"
        }
      ],
      "name": "createAllSale",
      "outputs": [
        {
          "internalType": "bool",
          "name": "",
          "type": "bool"
        }
      ],
      "stateMutability": "payable",
      "type": "function",
      "payable": true
    },
    {
      "inputs": [
        {
          "internalType": "uint256",
          "name": "_nftId",
          "type": "uint256"
        },
        {
          "internalType": "uint256",
          "name": "_price",
          "type": "uint256"
        },
        {
          "internalType": "uint256",
          "name": "_startTime",
          "type": "uint256"
        },
        {
          "internalType": "uint256",
          "name": "_endTime",
          "type": "uint256"
        }
      ],
      "name": "createSale",
      "outputs": [
        {
          "internalType": "address",
          "name": "",
          "type": "address"
        }
      ],
      "stateMutability": "payable",
      "type": "function",
      "payable": true
    },
    {
      "inputs": [],
      "name": "getNftAddress",
      "outputs": [
        {
          "internalType": "address",
          "name": "",
          "type": "address"
        }
      ],
      "stateMutability": "view",
      "type": "function",
      "constant": true
    },
    {
      "inputs": [],
      "name": "getTokenAddress",
      "outputs": [
        {
          "internalType": "address",
          "name": "",
          "type": "address"
        }
      ],
      "stateMutability": "view",
      "type": "function",
      "constant": true
    },
    {
      "inputs": [],
      "name": "allSales",
      "outputs": [
        {
          "internalType": "address[]",
          "name": "",
          "type": "address[]"
        }
      ],
      "stateMutability": "view",
      "type": "function",
      "constant": true
    }
  ],
  "bytecode": "0x60806040523480156200001157600080fd5b5060405162003c2338038062003c23833981810160405281019062000037919062000258565b620000576200004b6200012260201b60201c565b6200012a60201b60201c565b33600160006101000a81548173ffffffffffffffffffffffffffffffffffffffff021916908373ffffffffffffffffffffffffffffffffffffffff16021790555081600360006101000a81548173ffffffffffffffffffffffffffffffffffffffff021916908373ffffffffffffffffffffffffffffffffffffffff16021790555080600460006101000a81548173ffffffffffffffffffffffffffffffffffffffff021916908373ffffffffffffffffffffffffffffffffffffffff16021790555050506200029f565b600033905090565b60008060009054906101000a900473ffffffffffffffffffffffffffffffffffffffff169050816000806101000a81548173ffffffffffffffffffffffffffffffffffffffff021916908373ffffffffffffffffffffffffffffffffffffffff1602179055508173ffffffffffffffffffffffffffffffffffffffff168173ffffffffffffffffffffffffffffffffffffffff167f8be0079c531659141344cd1fd0a4f28419497f9722a3daafe3b4186f6b6457e060405160405180910390a35050565b600080fd5b600073ffffffffffffffffffffffffffffffffffffffff82169050919050565b60006200022082620001f3565b9050919050565b620002328162000213565b81146200023e57600080fd5b50565b600081519050620002528162000227565b92915050565b60008060408385031215620002725762000271620001ee565b5b6000620002828582860162000241565b9250506020620002958582860162000241565b9150509250929050565b61397480620002af6000396000f3fe6080604052600436106200009e5760003560e01c8063b5f522f71162000061578063b5f522f71462000183578063be9a71bd14620001c7578063f2fde38b14620001f7578063f6fcfd331462000225578063f851a440146200025b576200009e565b806310fe9ae814620000a35780636eafecba14620000d3578063715018a614620001035780638da5cb5b146200011d578063a52fb13a146200014d575b600080fd5b348015620000b057600080fd5b50620000bb6200028b565b604051620000ca9190620009fb565b60405180910390f35b348015620000e057600080fd5b50620000eb620002b5565b604051620000fa919062000ae6565b60405180910390f35b3480156200011057600080fd5b506200011b62000345565b005b3480156200012a57600080fd5b50620001356200035d565b604051620001449190620009fb565b60405180910390f35b6200016b600480360381019062000165919062000b4f565b62000386565b6040516200017a9190620009fb565b60405180910390f35b3480156200019057600080fd5b50620001af6004803603810190620001a9919062000bc1565b620006da565b604051620001be9190620009fb565b60405180910390f35b348015620001d457600080fd5b50620001df6200071a565b604051620001ee9190620009fb565b60405180910390f35b3480156200020457600080fd5b506200022360048036038101906200021d919062000c24565b62000744565b005b6200024360048036038101906200023d919062000cc4565b620007ce565b60405162000252919062000d77565b60405180910390f35b3480156200026857600080fd5b506200027362000831565b604051620002829190620009fb565b60405180910390f35b6000600460009054906101000a900473ffffffffffffffffffffffffffffffffffffffff16905090565b606060028054806020026020016040519081016040528092919081815260200182805480156200033b57602002820191906000526020600020905b8160009054906101000a900473ffffffffffffffffffffffffffffffffffffffff1673ffffffffffffffffffffffffffffffffffffffff1681526020019060010190808311620002f0575b5050505050905090565b6200034f62000857565b6200035b6000620008dc565b565b60008060009054906101000a900473ffffffffffffffffffffffffffffffffffffffff16905090565b60003373ffffffffffffffffffffffffffffffffffffffff16600360009054906101000a900473ffffffffffffffffffffffffffffffffffffffff1673ffffffffffffffffffffffffffffffffffffffff16636352211e876040518263ffffffff1660e01b8152600401620003fc919062000da5565b602060405180830381865afa1580156200041a573d6000803e3d6000fd5b505050506040513d601f19601f8201168201806040525081019062000440919062000dd9565b73ffffffffffffffffffffffffffffffffffffffff161462000499576040517f08c379a0000000000000000000000000000000000000000000000000000000008152600401620004909062000e6c565b60405180910390fd5b60003373ffffffffffffffffffffffffffffffffffffffff16600360009054906101000a900473ffffffffffffffffffffffffffffffffffffffff1673ffffffffffffffffffffffffffffffffffffffff1663288fa5bf886040518263ffffffff1660e01b81526004016200050f919062000da5565b602060405180830381865afa1580156200052d573d6000803e3d6000fd5b505050506040513d601f19601f8201168201806040525081019062000553919062000dd9565b73ffffffffffffffffffffffffffffffffffffffff16036200057457600190505b60008686838787600460009054906101000a900473ffffffffffffffffffffffffffffffffffffffff16600360009054906101000a900473ffffffffffffffffffffffffffffffffffffffff1633604051620005d090620009a8565b620005e398979695949392919062000e8e565b604051809103906000f08015801562000600573d6000803e3d6000fd5b5090506002819080600181540180825580915050600190039060005260206000200160009091909190916101000a81548173ffffffffffffffffffffffffffffffffffffffff021916908373ffffffffffffffffffffffffffffffffffffffff1602179055503373ffffffffffffffffffffffffffffffffffffffff168173ffffffffffffffffffffffffffffffffffffffff167f874bdb649427dfeceaa7f10beee59a823d3e45a6814f50bc18ba2adefd058e4889604051620006c5919062000da5565b60405180910390a38092505050949350505050565b60028181548110620006eb57600080fd5b906000526020600020016000915054906101000a900473ffffffffffffffffffffffffffffffffffffffff1681565b6000600360009054906101000a900473ffffffffffffffffffffffffffffffffffffffff16905090565b6200074e62000857565b600073ffffffffffffffffffffffffffffffffffffffff168173ffffffffffffffffffffffffffffffffffffffff1603620007c0576040517f08c379a0000000000000000000000000000000000000000000000000000000008152600401620007b79062000f92565b60405180910390fd5b620007cb81620008dc565b50565b600080600090505b8686905081101562000823576200080c878783818110620007fc57620007fb62000fb4565b5b9050602002013586868662000386565b5080806200081a9062001012565b915050620007d6565b506001905095945050505050565b600160009054906101000a900473ffffffffffffffffffffffffffffffffffffffff1681565b62000861620009a0565b73ffffffffffffffffffffffffffffffffffffffff16620008816200035d565b73ffffffffffffffffffffffffffffffffffffffff1614620008da576040517f08c379a0000000000000000000000000000000000000000000000000000000008152600401620008d190620010af565b60405180910390fd5b565b60008060009054906101000a900473ffffffffffffffffffffffffffffffffffffffff169050816000806101000a81548173ffffffffffffffffffffffffffffffffffffffff021916908373ffffffffffffffffffffffffffffffffffffffff1602179055508173ffffffffffffffffffffffffffffffffffffffff168173ffffffffffffffffffffffffffffffffffffffff167f8be0079c531659141344cd1fd0a4f28419497f9722a3daafe3b4186f6b6457e060405160405180910390a35050565b600033905090565b61286d80620010d283390190565b600073ffffffffffffffffffffffffffffffffffffffff82169050919050565b6000620009e382620009b6565b9050919050565b620009f581620009d6565b82525050565b600060208201905062000a126000830184620009ea565b92915050565b600081519050919050565b600082825260208201905092915050565b6000819050602082019050919050565b62000a4f81620009d6565b82525050565b600062000a63838362000a44565b60208301905092915050565b6000602082019050919050565b600062000a898262000a18565b62000a95818562000a23565b935062000aa28362000a34565b8060005b8381101562000ad957815162000abd888262000a55565b975062000aca8362000a6f565b92505060018101905062000aa6565b5085935050505092915050565b6000602082019050818103600083015262000b02818462000a7c565b905092915050565b600080fd5b600080fd5b6000819050919050565b62000b298162000b14565b811462000b3557600080fd5b50565b60008135905062000b498162000b1e565b92915050565b6000806000806080858703121562000b6c5762000b6b62000b0a565b5b600062000b7c8782880162000b38565b945050602062000b8f8782880162000b38565b935050604062000ba28782880162000b38565b925050606062000bb58782880162000b38565b91505092959194509250565b60006020828403121562000bda5762000bd962000b0a565b5b600062000bea8482850162000b38565b91505092915050565b62000bfe81620009d6565b811462000c0a57600080fd5b50565b60008135905062000c1e8162000bf3565b92915050565b60006020828403121562000c3d5762000c3c62000b0a565b5b600062000c4d8482850162000c0d565b91505092915050565b600080fd5b600080fd5b600080fd5b60008083601f84011262000c7e5762000c7d62000c56565b5b8235905067ffffffffffffffff81111562000c9e5762000c9d62000c5b565b5b60208301915083602082028301111562000cbd5762000cbc62000c60565b5b9250929050565b60008060008060006080868803121562000ce35762000ce262000b0a565b5b600086013567ffffffffffffffff81111562000d045762000d0362000b0f565b5b62000d128882890162000c65565b9550955050602062000d278882890162000b38565b935050604062000d3a8882890162000b38565b925050606062000d4d8882890162000b38565b9150509295509295909350565b60008115159050919050565b62000d718162000d5a565b82525050565b600060208201905062000d8e600083018462000d66565b92915050565b62000d9f8162000b14565b82525050565b600060208201905062000dbc600083018462000d94565b92915050565b60008151905062000dd38162000bf3565b92915050565b60006020828403121562000df25762000df162000b0a565b5b600062000e028482850162000dc2565b91505092915050565b600082825260208201905092915050565b7f6f6e6c79206f776e65722063616e206372656174652073616c652e0000000000600082015250565b600062000e54601b8362000e0b565b915062000e618262000e1c565b602082019050919050565b6000602082019050818103600083015262000e878162000e45565b9050919050565b60006101008201905062000ea6600083018b62000d94565b62000eb5602083018a62000d94565b62000ec4604083018962000d66565b62000ed3606083018862000d94565b62000ee2608083018762000d94565b62000ef160a0830186620009ea565b62000f0060c0830185620009ea565b62000f0f60e0830184620009ea565b9998505050505050505050565b7f4f776e61626c653a206e6577206f776e657220697320746865207a65726f206160008201527f6464726573730000000000000000000000000000000000000000000000000000602082015250565b600062000f7a60268362000e0b565b915062000f878262000f1c565b604082019050919050565b6000602082019050818103600083015262000fad8162000f6b565b9050919050565b7f4e487b7100000000000000000000000000000000000000000000000000000000600052603260045260246000fd5b7f4e487b7100000000000000000000000000000000000000000000000000000000600052601160045260246000fd5b60006200101f8262000b14565b91507fffffffffffffffffffffffffffffffffffffffffffffffffffffffffffffffff820362001054576200105362000fe3565b5b600182019050919050565b7f4f776e61626c653a2063616c6c6572206973206e6f7420746865206f776e6572600082015250565b60006200109760208362000e0b565b9150620010a4826200105f565b602082019050919050565b60006020820190508181036000830152620010ca8162001088565b905091905056fe60806040523480156200001157600080fd5b506040516200286d3803806200286d833981810160405281019062000037919062000434565b620000576200004b6200028660201b60201c565b6200028e60201b60201c565b600087116200009d576040517f08c379a000000000000000000000000000000000000000000000000000000000815260040162000094906200055e565b60405180910390fd5b428411620000e2576040517f08c379a0000000000000000000000000000000000000000000000000000000008152600401620000d990620005d0565b60405180910390fd5b876001819055508660038190555080600760016101000a81548173ffffffffffffffffffffffffffffffffffffffff021916908373ffffffffffffffffffffffffffffffffffffffff160217905550846005819055508360068190555082600960006101000a81548173ffffffffffffffffffffffffffffffffffffffff021916908373ffffffffffffffffffffffffffffffffffffffff16021790555081600a60006101000a81548173ffffffffffffffffffffffffffffffffffffffff021916908373ffffffffffffffffffffffffffffffffffffffff1602179055506000600760006101000a81548160ff02191690831515021790555082600b60006101000a81548173ffffffffffffffffffffffffffffffffffffffff021916908373ffffffffffffffffffffffffffffffffffffffff16021790555081600c60006101000a81548173ffffffffffffffffffffffffffffffffffffffff021916908373ffffffffffffffffffffffffffffffffffffffff16021790555085600460006101000a81548160ff0219169083151502179055505050505050505050620005f2565b600033905090565b60008060009054906101000a900473ffffffffffffffffffffffffffffffffffffffff169050816000806101000a81548173ffffffffffffffffffffffffffffffffffffffff021916908373ffffffffffffffffffffffffffffffffffffffff1602179055508173ffffffffffffffffffffffffffffffffffffffff168173ffffffffffffffffffffffffffffffffffffffff167f8be0079c531659141344cd1fd0a4f28419497f9722a3daafe3b4186f6b6457e060405160405180910390a35050565b600080fd5b6000819050919050565b6200036c8162000357565b81146200037857600080fd5b50565b6000815190506200038c8162000361565b92915050565b60008115159050919050565b620003a98162000392565b8114620003b557600080fd5b50565b600081519050620003c9816200039e565b92915050565b600073ffffffffffffffffffffffffffffffffffffffff82169050919050565b6000620003fc82620003cf565b9050919050565b6200040e81620003ef565b81146200041a57600080fd5b50565b6000815190506200042e8162000403565b92915050565b600080600080600080600080610100898b03121562000458576200045762000352565b5b6000620004688b828c016200037b565b98505060206200047b8b828c016200037b565b97505060406200048e8b828c01620003b8565b9650506060620004a18b828c016200037b565b9550506080620004b48b828c016200037b565b94505060a0620004c78b828c016200041d565b93505060c0620004da8b828c016200041d565b92505060e0620004ed8b828c016200041d565b9150509295985092959890939650565b600082825260208201905092915050565b7f7072696365206572726f72000000000000000000000000000000000000000000600082015250565b600062000546600b83620004fd565b915062000553826200050e565b602082019050919050565b60006020820190508181036000830152620005798162000537565b9050919050565b7f74696d65206572726f7200000000000000000000000000000000000000000000600082015250565b6000620005b8600a83620004fd565b9150620005c58262000580565b602082019050919050565b60006020820190508181036000830152620005eb81620005a9565b9050919050565b61226b80620006026000396000f3fe6080604052600436106100a75760003560e01c8063715018a611610064578063715018a61461015d5780638da5cb5b14610174578063a8f6c9131461019f578063d7c97fb4146101ca578063db83694c146101f5578063f2fde38b14610227576100a7565b8063150b7a02146100ac5780631c1cb323146100e95780633ccfd60b14610114578063590e1ae31461011e5780635bf8633a1461012857806364edfbf014610153575b600080fd5b3480156100b857600080fd5b506100d360048036038101906100ce91906117da565b610250565b6040516100e09190611898565b60405180910390f35b3480156100f557600080fd5b506100fe610264565b60405161010b91906118c2565b60405180910390f35b61011c61028a565b005b610126610785565b005b34801561013457600080fd5b5061013d610d46565b60405161014a91906118c2565b60405180910390f35b61015b610d6c565b005b34801561016957600080fd5b506101726111a7565b005b34801561018057600080fd5b506101896111bb565b60405161019691906118c2565b60405180910390f35b3480156101ab57600080fd5b506101b46111e4565b6040516101c1919061193c565b60405180910390f35b3480156101d657600080fd5b506101df61120a565b6040516101ec9190611978565b60405180910390f35b34801561020157600080fd5b5061020a611230565b60405161021e9897969594939291906119bd565b60405180910390f35b34801561023357600080fd5b5061024e60048036038101906102499190611a3b565b611356565b005b600063150b7a0260e01b9050949350505050565b600960009054906101000a900473ffffffffffffffffffffffffffffffffffffffff1681565b600760019054906101000a900473ffffffffffffffffffffffffffffffffffffffff1673ffffffffffffffffffffffffffffffffffffffff163373ffffffffffffffffffffffffffffffffffffffff161461031a576040517f08c379a000000000000000000000000000000000000000000000000000000000815260040161031190611ac5565b60405180910390fd5b60011515600760009054906101000a900460ff16151514610370576040517f08c379a000000000000000000000000000000000000000000000000000000000815260040161036790611b31565b60405180910390fd5b6000600354905060001515600460009054906101000a900460ff1615150361064e5760006104576064610449600c60009054906101000a900473ffffffffffffffffffffffffffffffffffffffff1673ffffffffffffffffffffffffffffffffffffffff1663b82edd5c6001546040518263ffffffff1660e01b81526004016103f99190611b51565b602060405180830381865afa158015610416573d6000803e3d6000fd5b505050506040513d601f19601f8201168201806040525081019061043a9190611b81565b856113d990919063ffffffff16565b6113ef90919063ffffffff16565b9050806003546104679190611bdd565b9150600b60009054906101000a900473ffffffffffffffffffffffffffffffffffffffff1673ffffffffffffffffffffffffffffffffffffffff1663a9059cbb33846040518363ffffffff1660e01b81526004016104c6929190611c11565b6020604051808303816000875af11580156104e5573d6000803e3d6000fd5b505050506040513d601f19601f820116820180604052508101906105099190611c66565b50600b60009054906101000a900473ffffffffffffffffffffffffffffffffffffffff1673ffffffffffffffffffffffffffffffffffffffff1663a9059cbb600c60009054906101000a900473ffffffffffffffffffffffffffffffffffffffff1673ffffffffffffffffffffffffffffffffffffffff1663288fa5bf6001546040518263ffffffff1660e01b81526004016105a59190611b51565b602060405180830381865afa1580156105c2573d6000803e3d6000fd5b505050506040513d601f19601f820116820180604052508101906105e69190611ca8565b836040518363ffffffff1660e01b8152600401610604929190611c11565b6020604051808303816000875af1158015610623573d6000803e3d6000fd5b505050506040513d601f19601f820116820180604052508101906106479190611c66565b5050610734565b6006544211610692576040517f08c379a000000000000000000000000000000000000000000000000000000000815260040161068990611d21565b60405180910390fd5b600b60009054906101000a900473ffffffffffffffffffffffffffffffffffffffff1673ffffffffffffffffffffffffffffffffffffffff1663a9059cbb33836040518363ffffffff1660e01b81526004016106ef929190611c11565b6020604051808303816000875af115801561070e573d6000803e3d6000fd5b505050506040513d601f19601f820116820180604052508101906107329190611c66565b505b3373ffffffffffffffffffffffffffffffffffffffff167f884edad9ce6fa2440d8a54cc123490eb96d2768479d49ff9c7366125a94243648260405161077a9190611b51565b60405180910390a250565b600c60009054906101000a900473ffffffffffffffffffffffffffffffffffffffff1673ffffffffffffffffffffffffffffffffffffffff1663288fa5bf6001546040518263ffffffff1660e01b81526004016107e29190611b51565b602060405180830381865afa1580156107ff573d6000803e3d6000fd5b505050506040513d601f19601f820116820180604052508101906108239190611ca8565b73ffffffffffffffffffffffffffffffffffffffff163373ffffffffffffffffffffffffffffffffffffffff1614610890576040517f08c379a000000000000000000000000000000000000000000000000000000000815260040161088790611d8d565b60405180910390fd5b60011515600760009054906101000a900460ff161515146108e6576040517f08c379a00000000000000000000000000000000000000000000000000000000081526004016108dd90611b31565b60405180910390fd5b60001515600c60009054906101000a900473ffffffffffffffffffffffffffffffffffffffff1673ffffffffffffffffffffffffffffffffffffffff1663e48526086001546040518263ffffffff1660e01b81526004016109479190611b51565b602060405180830381865afa158015610964573d6000803e3d6000fd5b505050506040513d601f19601f820116820180604052508101906109889190611c66565b1515146109ca576040517f08c379a00000000000000000000000000000000000000000000000000000000081526004016109c190611df9565b60405180910390fd5b600c60009054906101000a900473ffffffffffffffffffffffffffffffffffffffff1673ffffffffffffffffffffffffffffffffffffffff16636352211e6001546040518263ffffffff1660e01b8152600401610a279190611b51565b602060405180830381865afa158015610a44573d6000803e3d6000fd5b505050506040513d601f19601f82011682018060405250810190610a689190611ca8565b73ffffffffffffffffffffffffffffffffffffffff16600860009054906101000a900473ffffffffffffffffffffffffffffffffffffffff1673ffffffffffffffffffffffffffffffffffffffff1614610af7576040517f08c379a0000000000000000000000000000000000000000000000000000000008152600401610aee90611e65565b60405180910390fd5b600c60009054906101000a900473ffffffffffffffffffffffffffffffffffffffff1673ffffffffffffffffffffffffffffffffffffffff16636d1ce87b6001546040518263ffffffff1660e01b8152600401610b549190611b51565b600060405180830381600087803b158015610b6e57600080fd5b505af1158015610b82573d6000803e3d6000fd5b50505050600b60009054906101000a900473ffffffffffffffffffffffffffffffffffffffff1673ffffffffffffffffffffffffffffffffffffffff166323b872dd33600860009054906101000a900473ffffffffffffffffffffffffffffffffffffffff16600c60009054906101000a900473ffffffffffffffffffffffffffffffffffffffff1673ffffffffffffffffffffffffffffffffffffffff1663e75722306001546040518263ffffffff1660e01b8152600401610c459190611b51565b602060405180830381865afa158015610c62573d6000803e3d6000fd5b505050506040513d601f19601f82011682018060405250810190610c869190611b81565b6040518463ffffffff1660e01b8152600401610ca493929190611e85565b6020604051808303816000875af1158015610cc3573d6000803e3d6000fd5b505050506040513d601f19601f82011682018060405250810190610ce79190611c66565b506001547f510b82fea70ff89a8cc73cd7f29db2d7b480134c160cb52a258797b42d1989ad600860009054906101000a900473ffffffffffffffffffffffffffffffffffffffff16604051610d3c91906118c2565b60405180910390a2565b600a60009054906101000a900473ffffffffffffffffffffffffffffffffffffffff1681565b600554421015610db1576040517f08c379a0000000000000000000000000000000000000000000000000000000008152600401610da890611f08565b60405180910390fd5b6006544210610df5576040517f08c379a0000000000000000000000000000000000000000000000000000000008152600401610dec90611f74565b60405180910390fd5b600c60009054906101000a900473ffffffffffffffffffffffffffffffffffffffff1673ffffffffffffffffffffffffffffffffffffffff16636352211e6001546040518263ffffffff1660e01b8152600401610e529190611b51565b602060405180830381865afa158015610e6f573d6000803e3d6000fd5b505050506040513d601f19601f82011682018060405250810190610e939190611ca8565b73ffffffffffffffffffffffffffffffffffffffff16600760019054906101000a900473ffffffffffffffffffffffffffffffffffffffff1673ffffffffffffffffffffffffffffffffffffffff1614610f22576040517f08c379a0000000000000000000000000000000000000000000000000000000008152600401610f1990611fe0565b60405180910390fd5b600b60009054906101000a900473ffffffffffffffffffffffffffffffffffffffff1673ffffffffffffffffffffffffffffffffffffffff166370a08231336040518263ffffffff1660e01b8152600401610f7d91906118c2565b602060405180830381865afa158015610f9a573d6000803e3d6000fd5b505050506040513d601f19601f82011682018060405250810190610fbe9190611b81565b6003541115611002576040517f08c379a0000000000000000000000000000000000000000000000000000000008152600401610ff99061204c565b60405180910390fd5b600b60009054906101000a900473ffffffffffffffffffffffffffffffffffffffff1673ffffffffffffffffffffffffffffffffffffffff166323b872dd33306003546040518463ffffffff1660e01b815260040161106393929190611e85565b6020604051808303816000875af1158015611082573d6000803e3d6000fd5b505050506040513d601f19601f820116820180604052508101906110a69190611c66565b50600c60009054906101000a900473ffffffffffffffffffffffffffffffffffffffff1673ffffffffffffffffffffffffffffffffffffffff166342842e0e600760019054906101000a900473ffffffffffffffffffffffffffffffffffffffff16336001546040518463ffffffff1660e01b815260040161112a93929190611e85565b600060405180830381600087803b15801561114457600080fd5b505af1158015611158573d6000803e3d6000fd5b5050505033600860006101000a81548173ffffffffffffffffffffffffffffffffffffffff021916908373ffffffffffffffffffffffffffffffffffffffff1602179055506111a5611405565b565b6111af6114a2565b6111b96000611520565b565b60008060009054906101000a900473ffffffffffffffffffffffffffffffffffffffff16905090565b600b60009054906101000a900473ffffffffffffffffffffffffffffffffffffffff1681565b600c60009054906101000a900473ffffffffffffffffffffffffffffffffffffffff1681565b600080600080600080600080600554600654600354600154600c60009054906101000a900473ffffffffffffffffffffffffffffffffffffffff1673ffffffffffffffffffffffffffffffffffffffff1663288fa5bf6001546040518263ffffffff1660e01b81526004016112a59190611b51565b602060405180830381865afa1580156112c2573d6000803e3d6000fd5b505050506040513d601f19601f820116820180604052508101906112e69190611ca8565b600760009054906101000a900460ff16600960009054906101000a900473ffffffffffffffffffffffffffffffffffffffff16600a60009054906101000a900473ffffffffffffffffffffffffffffffffffffffff16975097509750975097509750975097509091929394959697565b61135e6114a2565b600073ffffffffffffffffffffffffffffffffffffffff168173ffffffffffffffffffffffffffffffffffffffff16036113cd576040517f08c379a00000000000000000000000000000000000000000000000000000000081526004016113c4906120de565b60405180910390fd5b6113d681611520565b50565b600081836113e791906120fe565b905092915050565b600081836113fd919061216f565b905092915050565b6001600760006101000a81548160ff0219169083151502179055506001547f2d9abaed896ece5f9f4f4484ce756b21c297e5aa6739114910fc097c750f27a5600760019054906101000a900473ffffffffffffffffffffffffffffffffffffffff16600860009054906101000a900473ffffffffffffffffffffffffffffffffffffffff166040516114989291906121a0565b60405180910390a2565b6114aa6115e4565b73ffffffffffffffffffffffffffffffffffffffff166114c86111bb565b73ffffffffffffffffffffffffffffffffffffffff161461151e576040517f08c379a000000000000000000000000000000000000000000000000000000000815260040161151590612215565b60405180910390fd5b565b60008060009054906101000a900473ffffffffffffffffffffffffffffffffffffffff169050816000806101000a81548173ffffffffffffffffffffffffffffffffffffffff021916908373ffffffffffffffffffffffffffffffffffffffff1602179055508173ffffffffffffffffffffffffffffffffffffffff168173ffffffffffffffffffffffffffffffffffffffff167f8be0079c531659141344cd1fd0a4f28419497f9722a3daafe3b4186f6b6457e060405160405180910390a35050565b600033905090565b6000604051905090565b600080fd5b600080fd5b600073ffffffffffffffffffffffffffffffffffffffff82169050919050565b600061162b82611600565b9050919050565b61163b81611620565b811461164657600080fd5b50565b60008135905061165881611632565b92915050565b6000819050919050565b6116718161165e565b811461167c57600080fd5b50565b60008135905061168e81611668565b92915050565b600080fd5b600080fd5b6000601f19601f8301169050919050565b7f4e487b7100000000000000000000000000000000000000000000000000000000600052604160045260246000fd5b6116e78261169e565b810181811067ffffffffffffffff82111715611706576117056116af565b5b80604052505050565b60006117196115ec565b905061172582826116de565b919050565b600067ffffffffffffffff821115611745576117446116af565b5b61174e8261169e565b9050602081019050919050565b82818337600083830152505050565b600061177d6117788461172a565b61170f565b90508281526020810184848401111561179957611798611699565b5b6117a484828561175b565b509392505050565b600082601f8301126117c1576117c0611694565b5b81356117d184826020860161176a565b91505092915050565b600080600080608085870312156117f4576117f36115f6565b5b600061180287828801611649565b945050602061181387828801611649565b93505060406118248782880161167f565b925050606085013567ffffffffffffffff811115611845576118446115fb565b5b611851878288016117ac565b91505092959194509250565b60007fffffffff0000000000000000000000000000000000000000000000000000000082169050919050565b6118928161185d565b82525050565b60006020820190506118ad6000830184611889565b92915050565b6118bc81611620565b82525050565b60006020820190506118d760008301846118b3565b92915050565b6000819050919050565b60006119026118fd6118f884611600565b6118dd565b611600565b9050919050565b6000611914826118e7565b9050919050565b600061192682611909565b9050919050565b6119368161191b565b82525050565b6000602082019050611951600083018461192d565b92915050565b600061196282611909565b9050919050565b61197281611957565b82525050565b600060208201905061198d6000830184611969565b92915050565b61199c8161165e565b82525050565b60008115159050919050565b6119b7816119a2565b82525050565b6000610100820190506119d3600083018b611993565b6119e0602083018a611993565b6119ed6040830189611993565b6119fa6060830188611993565b611a0760808301876118b3565b611a1460a08301866119ae565b611a2160c08301856118b3565b611a2e60e08301846118b3565b9998505050505050505050565b600060208284031215611a5157611a506115f6565b5b6000611a5f84828501611649565b91505092915050565b600082825260208201905092915050565b7f6f6e6c792073656c6c6572206164647265737300000000000000000000000000600082015250565b6000611aaf601383611a68565b9150611aba82611a79565b602082019050919050565b60006020820190508181036000830152611ade81611aa2565b9050919050565b7f73616c65206973206e6f742066696e69736865642e0000000000000000000000600082015250565b6000611b1b601583611a68565b9150611b2682611ae5565b602082019050919050565b60006020820190508181036000830152611b4a81611b0e565b9050919050565b6000602082019050611b666000830184611993565b92915050565b600081519050611b7b81611668565b92915050565b600060208284031215611b9757611b966115f6565b5b6000611ba584828501611b6c565b91505092915050565b7f4e487b7100000000000000000000000000000000000000000000000000000000600052601160045260246000fd5b6000611be88261165e565b9150611bf38361165e565b9250828203905081811115611c0b57611c0a611bae565b5b92915050565b6000604082019050611c2660008301856118b3565b611c336020830184611993565b9392505050565b611c43816119a2565b8114611c4e57600080fd5b50565b600081519050611c6081611c3a565b92915050565b600060208284031215611c7c57611c7b6115f6565b5b6000611c8a84828501611c51565b91505092915050565b600081519050611ca281611632565b92915050565b600060208284031215611cbe57611cbd6115f6565b5b6000611ccc84828501611c93565b91505092915050565b7f73616c65206973206e6f742066696e6973686564000000000000000000000000600082015250565b6000611d0b601483611a68565b9150611d1682611cd5565b602082019050919050565b60006020820190508181036000830152611d3a81611cfe565b9050919050565b7f6f6e6c792073746f726520616464726573730000000000000000000000000000600082015250565b6000611d77601283611a68565b9150611d8282611d41565b602082019050919050565b60006020820190508181036000830152611da681611d6a565b9050919050565b7f6e6661737420616c726561647920757365640000000000000000000000000000600082015250565b6000611de3601283611a68565b9150611dee82611dad565b602082019050919050565b60006020820190508181036000830152611e1281611dd6565b9050919050565b7f6275796572206973206e6f74206f776e65720000000000000000000000000000600082015250565b6000611e4f601283611a68565b9150611e5a82611e19565b602082019050919050565b60006020820190508181036000830152611e7e81611e42565b9050919050565b6000606082019050611e9a60008301866118b3565b611ea760208301856118b3565b611eb46040830184611993565b949350505050565b7f73616c65206973206e6f7420737461727465642e000000000000000000000000600082015250565b6000611ef2601483611a68565b9150611efd82611ebc565b602082019050919050565b60006020820190508181036000830152611f2181611ee5565b9050919050565b7f73616c652069732066696e697368656400000000000000000000000000000000600082015250565b6000611f5e601083611a68565b9150611f6982611f28565b602082019050919050565b60006020820190508181036000830152611f8d81611f51565b9050919050565b7f73656c6c6572206973206e6f74206f776e657200000000000000000000000000600082015250565b6000611fca601383611a68565b9150611fd582611f94565b602082019050919050565b60006020820190508181036000830152611ff981611fbd565b9050919050565b7f62616c616e6365206973206e6f7420656e6f7567680000000000000000000000600082015250565b6000612036601583611a68565b915061204182612000565b602082019050919050565b6000602082019050818103600083015261206581612029565b9050919050565b7f4f776e61626c653a206e6577206f776e657220697320746865207a65726f206160008201527f6464726573730000000000000000000000000000000000000000000000000000602082015250565b60006120c8602683611a68565b91506120d38261206c565b604082019050919050565b600060208201905081810360008301526120f7816120bb565b9050919050565b60006121098261165e565b91506121148361165e565b92508282026121228161165e565b9150828204841483151761213957612138611bae565b5b5092915050565b7f4e487b7100000000000000000000000000000000000000000000000000000000600052601260045260246000fd5b600061217a8261165e565b91506121858361165e565b92508261219557612194612140565b5b828204905092915050565b60006040820190506121b560008301856118b3565b6121c260208301846118b3565b9392505050565b7f4f776e61626c653a2063616c6c6572206973206e6f7420746865206f776e6572600082015250565b60006121ff602083611a68565b915061220a826121c9565b602082019050919050565b6000602082019050818103600083015261222e816121f2565b905091905056fea2646970667358221220d97a30164d75290841ef7fe8a2526caed47b55b75f5cdf0144eca1ed4750e9cc64736f6c63430008130033a2646970667358221220ae3867af4afb2782355d6f7ed80066e05dc505b0b586589ae7d901db5c996bc964736f6c63430008130033",
  "immutableReferences": {},
  "source": "// SPDX-License-Identifier: MIT\r\npragma solidity ^0.8.4;\r\n\r\nimport \"@openzeppelin/contracts/access/Ownable.sol\";\r\nimport \"@openzeppelin/contracts/token/ERC721/ERC721.sol\";\r\nimport \"@openzeppelin/contracts/token/ERC20/ERC20.sol\";\r\nimport \"@openzeppelin/contracts/token/ERC721/IERC721Receiver.sol\";\r\n//import \"./access/Ownable.sol\";\r\n//import \"./token/ERC20/ERC20.sol\";\r\n//import \"./token/ERC721/ERC721.sol\";\r\nimport \"./Nfast.sol\";\r\nimport \"./Sale.sol\";\r\n\r\n\r\ncontract SaleFactory is Ownable {\r\n    address public admin;\r\n    address[] public sales;\r\n\r\n    address private nftAddress;\r\n    address private tokenAddress;\r\n\r\n    event NewSale(address indexed _saleContract, address indexed _owner, uint256 _workId);\r\n\r\n    constructor(address _nftAddress, address _tokenAddress) {\r\n        admin = msg.sender;\r\n        nftAddress = _nftAddress;\r\n        tokenAddress = _tokenAddress;\r\n    }\r\n\r\n    function createAllSale(uint256[] calldata _nftIds, uint256 _price, uint256 _startTime, uint256 _endTime)\r\n    public\r\n    payable\r\n    returns (bool)\r\n    {\r\n        for (uint256 i = 0; i < _nftIds.length; i++) {\r\n            createSale(_nftIds[i],_price,_startTime,_endTime);\r\n        }\r\n        return true;\r\n    }\r\n\r\n    function createSale(uint256 _nftId, uint256 _price, uint256 _startTime, uint256 _endTime)\r\n    public\r\n    payable\r\n    returns (address) {\r\n        require(Nfast(nftAddress).ownerOf(_nftId) == msg.sender,\"only owner can create sale.\");\r\n        //   \r\n        bool isStore = false;\r\n        if (Nfast(nftAddress).getStoreAddress(_nftId) == msg.sender) isStore = true;\r\n        Sale newSale = new Sale(_nftId, _price, isStore, _startTime, _endTime, tokenAddress, nftAddress, msg.sender);\r\n        sales.push(address(newSale));\r\n\r\n        // nft approve\r\n//        nfast(nftAddress).approve(address(newSale),_nftId);\r\n\r\n\r\n        emit NewSale(address(newSale), msg.sender, _nftId);\r\n        return address(newSale);\r\n    }\r\n\r\n    function getNftAddress()\r\n    public\r\n    view\r\n    returns (address)\r\n    {\r\n        return nftAddress;\r\n    }\r\n\r\n    function getTokenAddress()\r\n    public\r\n    view\r\n    returns (address)\r\n    {\r\n        return tokenAddress;\r\n    }\r\n    function allSales()\r\n    public\r\n    view\r\n    returns (address[] memory) {\r\n        return sales;\r\n    }\r\n}\r\n",
  "sourcePath": "C:\\ssafy\\git\\S08P22A307\\smartContract\\contracts\\SaleFactory.sol",
  "compiler": {
    "name": "solc",
    "version": "0.8.19+commit.7dd6d404.Emscripten.clang"
  },
  "schemaVersion": "3.4.12",
  "updatedAt": "2023-03-30T08:09:24.431Z",
  "networkType": "ethereum",
  "devdoc": {
    "kind": "dev",
    "methods": {
      "owner()": {
        "details": "Returns the address of the current owner."
      },
      "renounceOwnership()": {
        "details": "Leaves the contract without owner. It will not be possible to call `onlyOwner` functions anymore. Can only be called by the current owner. NOTE: Renouncing ownership will leave the contract without an owner, thereby removing any functionality that is only available to the owner."
      },
      "transferOwnership(address)": {
        "details": "Transfers ownership of the contract to a new account (`newOwner`). Can only be called by the current owner."
      }
    },
    "version": 1
  },
  "userdoc": {
    "kind": "user",
    "methods": {},
    "version": 1
  }
}