{
  "contractName": "Sale",
  "abi": [
    {
      "inputs": [
        {
          "internalType": "uint256",
          "name": "_nftId",
          "type": "uint256"
        },
        {
          "internalType": "uint256",
          "name": "_price",
          "type": "uint256"
        },
        {
          "internalType": "bool",
          "name": "_isStore",
          "type": "bool"
        },
        {
          "internalType": "uint256",
          "name": "_startDate",
          "type": "uint256"
        },
        {
          "internalType": "uint256",
          "name": "_endDate",
          "type": "uint256"
        },
        {
          "internalType": "address",
          "name": "_currencyAddress",
          "type": "address"
        },
        {
          "internalType": "address",
          "name": "_nftAddress",
          "type": "address"
        },
        {
          "internalType": "address",
          "name": "_sellerAddress",
          "type": "address"
        }
      ],
      "stateMutability": "nonpayable",
      "type": "constructor"
    },
    {
      "anonymous": false,
      "inputs": [
        {
          "indexed": true,
          "internalType": "address",
          "name": "previousOwner",
          "type": "address"
        },
        {
          "indexed": true,
          "internalType": "address",
          "name": "newOwner",
          "type": "address"
        }
      ],
      "name": "OwnershipTransferred",
      "type": "event"
    },
    {
      "anonymous": false,
      "inputs": [
        {
          "indexed": true,
          "internalType": "uint256",
          "name": "_nftId",
          "type": "uint256"
        },
        {
          "indexed": false,
          "internalType": "address",
          "name": "_seller",
          "type": "address"
        },
        {
          "indexed": false,
          "internalType": "address",
          "name": "_buyer",
          "type": "address"
        }
      ],
      "name": "Purchase",
      "type": "event"
    },
    {
      "anonymous": false,
      "inputs": [
        {
          "indexed": true,
          "internalType": "uint256",
          "name": "_nftId",
          "type": "uint256"
        },
        {
          "indexed": false,
          "internalType": "address",
          "name": "_to",
          "type": "address"
        }
      ],
      "name": "Refund",
      "type": "event"
    },
    {
      "anonymous": false,
      "inputs": [
        {
          "indexed": true,
          "internalType": "address",
          "name": "_to",
          "type": "address"
        },
        {
          "indexed": false,
          "internalType": "uint256",
          "name": "_price",
          "type": "uint256"
        }
      ],
      "name": "Withdraw",
      "type": "event"
    },
    {
      "inputs": [],
      "name": "currencyAddress",
      "outputs": [
        {
          "internalType": "address",
          "name": "",
          "type": "address"
        }
      ],
      "stateMutability": "view",
      "type": "function"
    },
    {
      "inputs": [],
      "name": "erc20Contract",
      "outputs": [
        {
          "internalType": "contract IERC20",
          "name": "",
          "type": "address"
        }
      ],
      "stateMutability": "view",
      "type": "function"
    },
    {
      "inputs": [],
      "name": "erc721Contract",
      "outputs": [
        {
          "internalType": "contract Nfast",
          "name": "",
          "type": "address"
        }
      ],
      "stateMutability": "view",
      "type": "function"
    },
    {
      "inputs": [],
      "name": "nftAddress",
      "outputs": [
        {
          "internalType": "address",
          "name": "",
          "type": "address"
        }
      ],
      "stateMutability": "view",
      "type": "function"
    },
    {
      "inputs": [],
      "name": "owner",
      "outputs": [
        {
          "internalType": "address",
          "name": "",
          "type": "address"
        }
      ],
      "stateMutability": "view",
      "type": "function"
    },
    {
      "inputs": [],
      "name": "renounceOwnership",
      "outputs": [],
      "stateMutability": "nonpayable",
      "type": "function"
    },
    {
      "inputs": [
        {
          "internalType": "address",
          "name": "newOwner",
          "type": "address"
        }
      ],
      "name": "transferOwnership",
      "outputs": [],
      "stateMutability": "nonpayable",
      "type": "function"
    },
    {
      "inputs": [],
      "name": "purchase",
      "outputs": [],
      "stateMutability": "payable",
      "type": "function"
    },
    {
      "inputs": [],
      "name": "refund",
      "outputs": [],
      "stateMutability": "payable",
      "type": "function"
    },
    {
      "inputs": [],
      "name": "withdraw",
      "outputs": [],
      "stateMutability": "payable",
      "type": "function"
    },
    {
      "inputs": [],
      "name": "getSaleInfo",
      "outputs": [
        {
          "internalType": "uint256",
          "name": "",
          "type": "uint256"
        },
        {
          "internalType": "uint256",
          "name": "",
          "type": "uint256"
        },
        {
          "internalType": "uint256",
          "name": "",
          "type": "uint256"
        },
        {
          "internalType": "uint256",
          "name": "",
          "type": "uint256"
        },
        {
          "internalType": "address",
          "name": "",
          "type": "address"
        },
        {
          "internalType": "bool",
          "name": "",
          "type": "bool"
        },
        {
          "internalType": "address",
          "name": "",
          "type": "address"
        },
        {
          "internalType": "address",
          "name": "",
          "type": "address"
        }
      ],
      "stateMutability": "view",
      "type": "function"
    },
    {
      "inputs": [
        {
          "internalType": "address",
          "name": "operator",
          "type": "address"
        },
        {
          "internalType": "address",
          "name": "from",
          "type": "address"
        },
        {
          "internalType": "uint256",
          "name": "tokenId",
          "type": "uint256"
        },
        {
          "internalType": "bytes",
          "name": "data",
          "type": "bytes"
        }
      ],
      "name": "onERC721Received",
      "outputs": [
        {
          "internalType": "bytes4",
          "name": "",
          "type": "bytes4"
        }
      ],
      "stateMutability": "nonpayable",
      "type": "function"
    }
  ],
  "bytecode": "0x60806040523480156200001157600080fd5b506040516200286d3803806200286d833981810160405281019062000037919062000434565b620000576200004b6200028660201b60201c565b6200028e60201b60201c565b600087116200009d576040517f08c379a000000000000000000000000000000000000000000000000000000000815260040162000094906200055e565b60405180910390fd5b428411620000e2576040517f08c379a0000000000000000000000000000000000000000000000000000000008152600401620000d990620005d0565b60405180910390fd5b876001819055508660038190555080600760016101000a81548173ffffffffffffffffffffffffffffffffffffffff021916908373ffffffffffffffffffffffffffffffffffffffff160217905550846005819055508360068190555082600960006101000a81548173ffffffffffffffffffffffffffffffffffffffff021916908373ffffffffffffffffffffffffffffffffffffffff16021790555081600a60006101000a81548173ffffffffffffffffffffffffffffffffffffffff021916908373ffffffffffffffffffffffffffffffffffffffff1602179055506000600760006101000a81548160ff02191690831515021790555082600b60006101000a81548173ffffffffffffffffffffffffffffffffffffffff021916908373ffffffffffffffffffffffffffffffffffffffff16021790555081600c60006101000a81548173ffffffffffffffffffffffffffffffffffffffff021916908373ffffffffffffffffffffffffffffffffffffffff16021790555085600460006101000a81548160ff0219169083151502179055505050505050505050620005f2565b600033905090565b60008060009054906101000a900473ffffffffffffffffffffffffffffffffffffffff169050816000806101000a81548173ffffffffffffffffffffffffffffffffffffffff021916908373ffffffffffffffffffffffffffffffffffffffff1602179055508173ffffffffffffffffffffffffffffffffffffffff168173ffffffffffffffffffffffffffffffffffffffff167f8be0079c531659141344cd1fd0a4f28419497f9722a3daafe3b4186f6b6457e060405160405180910390a35050565b600080fd5b6000819050919050565b6200036c8162000357565b81146200037857600080fd5b50565b6000815190506200038c8162000361565b92915050565b60008115159050919050565b620003a98162000392565b8114620003b557600080fd5b50565b600081519050620003c9816200039e565b92915050565b600073ffffffffffffffffffffffffffffffffffffffff82169050919050565b6000620003fc82620003cf565b9050919050565b6200040e81620003ef565b81146200041a57600080fd5b50565b6000815190506200042e8162000403565b92915050565b600080600080600080600080610100898b03121562000458576200045762000352565b5b6000620004688b828c016200037b565b98505060206200047b8b828c016200037b565b97505060406200048e8b828c01620003b8565b9650506060620004a18b828c016200037b565b9550506080620004b48b828c016200037b565b94505060a0620004c78b828c016200041d565b93505060c0620004da8b828c016200041d565b92505060e0620004ed8b828c016200041d565b9150509295985092959890939650565b600082825260208201905092915050565b7f7072696365206572726f72000000000000000000000000000000000000000000600082015250565b600062000546600b83620004fd565b915062000553826200050e565b602082019050919050565b60006020820190508181036000830152620005798162000537565b9050919050565b7f74696d65206572726f7200000000000000000000000000000000000000000000600082015250565b6000620005b8600a83620004fd565b9150620005c58262000580565b602082019050919050565b60006020820190508181036000830152620005eb81620005a9565b9050919050565b61226b80620006026000396000f3fe6080604052600436106100a75760003560e01c8063715018a611610064578063715018a61461015d5780638da5cb5b14610174578063a8f6c9131461019f578063d7c97fb4146101ca578063db83694c146101f5578063f2fde38b14610227576100a7565b8063150b7a02146100ac5780631c1cb323146100e95780633ccfd60b14610114578063590e1ae31461011e5780635bf8633a1461012857806364edfbf014610153575b600080fd5b3480156100b857600080fd5b506100d360048036038101906100ce91906117da565b610250565b6040516100e09190611898565b60405180910390f35b3480156100f557600080fd5b506100fe610264565b60405161010b91906118c2565b60405180910390f35b61011c61028a565b005b610126610785565b005b34801561013457600080fd5b5061013d610d46565b60405161014a91906118c2565b60405180910390f35b61015b610d6c565b005b34801561016957600080fd5b506101726111a7565b005b34801561018057600080fd5b506101896111bb565b60405161019691906118c2565b60405180910390f35b3480156101ab57600080fd5b506101b46111e4565b6040516101c1919061193c565b60405180910390f35b3480156101d657600080fd5b506101df61120a565b6040516101ec9190611978565b60405180910390f35b34801561020157600080fd5b5061020a611230565b60405161021e9897969594939291906119bd565b60405180910390f35b34801561023357600080fd5b5061024e60048036038101906102499190611a3b565b611356565b005b600063150b7a0260e01b9050949350505050565b600960009054906101000a900473ffffffffffffffffffffffffffffffffffffffff1681565b600760019054906101000a900473ffffffffffffffffffffffffffffffffffffffff1673ffffffffffffffffffffffffffffffffffffffff163373ffffffffffffffffffffffffffffffffffffffff161461031a576040517f08c379a000000000000000000000000000000000000000000000000000000000815260040161031190611ac5565b60405180910390fd5b60011515600760009054906101000a900460ff16151514610370576040517f08c379a000000000000000000000000000000000000000000000000000000000815260040161036790611b31565b60405180910390fd5b6000600354905060001515600460009054906101000a900460ff1615150361064e5760006104576064610449600c60009054906101000a900473ffffffffffffffffffffffffffffffffffffffff1673ffffffffffffffffffffffffffffffffffffffff1663b82edd5c6001546040518263ffffffff1660e01b81526004016103f99190611b51565b602060405180830381865afa158015610416573d6000803e3d6000fd5b505050506040513d601f19601f8201168201806040525081019061043a9190611b81565b856113d990919063ffffffff16565b6113ef90919063ffffffff16565b9050806003546104679190611bdd565b9150600b60009054906101000a900473ffffffffffffffffffffffffffffffffffffffff1673ffffffffffffffffffffffffffffffffffffffff1663a9059cbb33846040518363ffffffff1660e01b81526004016104c6929190611c11565b6020604051808303816000875af11580156104e5573d6000803e3d6000fd5b505050506040513d601f19601f820116820180604052508101906105099190611c66565b50600b60009054906101000a900473ffffffffffffffffffffffffffffffffffffffff1673ffffffffffffffffffffffffffffffffffffffff1663a9059cbb600c60009054906101000a900473ffffffffffffffffffffffffffffffffffffffff1673ffffffffffffffffffffffffffffffffffffffff1663288fa5bf6001546040518263ffffffff1660e01b81526004016105a59190611b51565b602060405180830381865afa1580156105c2573d6000803e3d6000fd5b505050506040513d601f19601f820116820180604052508101906105e69190611ca8565b836040518363ffffffff1660e01b8152600401610604929190611c11565b6020604051808303816000875af1158015610623573d6000803e3d6000fd5b505050506040513d601f19601f820116820180604052508101906106479190611c66565b5050610734565b6006544211610692576040517f08c379a000000000000000000000000000000000000000000000000000000000815260040161068990611d21565b60405180910390fd5b600b60009054906101000a900473ffffffffffffffffffffffffffffffffffffffff1673ffffffffffffffffffffffffffffffffffffffff1663a9059cbb33836040518363ffffffff1660e01b81526004016106ef929190611c11565b6020604051808303816000875af115801561070e573d6000803e3d6000fd5b505050506040513d601f19601f820116820180604052508101906107329190611c66565b505b3373ffffffffffffffffffffffffffffffffffffffff167f884edad9ce6fa2440d8a54cc123490eb96d2768479d49ff9c7366125a94243648260405161077a9190611b51565b60405180910390a250565b600c60009054906101000a900473ffffffffffffffffffffffffffffffffffffffff1673ffffffffffffffffffffffffffffffffffffffff1663288fa5bf6001546040518263ffffffff1660e01b81526004016107e29190611b51565b602060405180830381865afa1580156107ff573d6000803e3d6000fd5b505050506040513d601f19601f820116820180604052508101906108239190611ca8565b73ffffffffffffffffffffffffffffffffffffffff163373ffffffffffffffffffffffffffffffffffffffff1614610890576040517f08c379a000000000000000000000000000000000000000000000000000000000815260040161088790611d8d565b60405180910390fd5b60011515600760009054906101000a900460ff161515146108e6576040517f08c379a00000000000000000000000000000000000000000000000000000000081526004016108dd90611b31565b60405180910390fd5b60001515600c60009054906101000a900473ffffffffffffffffffffffffffffffffffffffff1673ffffffffffffffffffffffffffffffffffffffff1663e48526086001546040518263ffffffff1660e01b81526004016109479190611b51565b602060405180830381865afa158015610964573d6000803e3d6000fd5b505050506040513d601f19601f820116820180604052508101906109889190611c66565b1515146109ca576040517f08c379a00000000000000000000000000000000000000000000000000000000081526004016109c190611df9565b60405180910390fd5b600c60009054906101000a900473ffffffffffffffffffffffffffffffffffffffff1673ffffffffffffffffffffffffffffffffffffffff16636352211e6001546040518263ffffffff1660e01b8152600401610a279190611b51565b602060405180830381865afa158015610a44573d6000803e3d6000fd5b505050506040513d601f19601f82011682018060405250810190610a689190611ca8565b73ffffffffffffffffffffffffffffffffffffffff16600860009054906101000a900473ffffffffffffffffffffffffffffffffffffffff1673ffffffffffffffffffffffffffffffffffffffff1614610af7576040517f08c379a0000000000000000000000000000000000000000000000000000000008152600401610aee90611e65565b60405180910390fd5b600c60009054906101000a900473ffffffffffffffffffffffffffffffffffffffff1673ffffffffffffffffffffffffffffffffffffffff16636d1ce87b6001546040518263ffffffff1660e01b8152600401610b549190611b51565b600060405180830381600087803b158015610b6e57600080fd5b505af1158015610b82573d6000803e3d6000fd5b50505050600b60009054906101000a900473ffffffffffffffffffffffffffffffffffffffff1673ffffffffffffffffffffffffffffffffffffffff166323b872dd33600860009054906101000a900473ffffffffffffffffffffffffffffffffffffffff16600c60009054906101000a900473ffffffffffffffffffffffffffffffffffffffff1673ffffffffffffffffffffffffffffffffffffffff1663e75722306001546040518263ffffffff1660e01b8152600401610c459190611b51565b602060405180830381865afa158015610c62573d6000803e3d6000fd5b505050506040513d601f19601f82011682018060405250810190610c869190611b81565b6040518463ffffffff1660e01b8152600401610ca493929190611e85565b6020604051808303816000875af1158015610cc3573d6000803e3d6000fd5b505050506040513d601f19601f82011682018060405250810190610ce79190611c66565b506001547f510b82fea70ff89a8cc73cd7f29db2d7b480134c160cb52a258797b42d1989ad600860009054906101000a900473ffffffffffffffffffffffffffffffffffffffff16604051610d3c91906118c2565b60405180910390a2565b600a60009054906101000a900473ffffffffffffffffffffffffffffffffffffffff1681565b600554421015610db1576040517f08c379a0000000000000000000000000000000000000000000000000000000008152600401610da890611f08565b60405180910390fd5b6006544210610df5576040517f08c379a0000000000000000000000000000000000000000000000000000000008152600401610dec90611f74565b60405180910390fd5b600c60009054906101000a900473ffffffffffffffffffffffffffffffffffffffff1673ffffffffffffffffffffffffffffffffffffffff16636352211e6001546040518263ffffffff1660e01b8152600401610e529190611b51565b602060405180830381865afa158015610e6f573d6000803e3d6000fd5b505050506040513d601f19601f82011682018060405250810190610e939190611ca8565b73ffffffffffffffffffffffffffffffffffffffff16600760019054906101000a900473ffffffffffffffffffffffffffffffffffffffff1673ffffffffffffffffffffffffffffffffffffffff1614610f22576040517f08c379a0000000000000000000000000000000000000000000000000000000008152600401610f1990611fe0565b60405180910390fd5b600b60009054906101000a900473ffffffffffffffffffffffffffffffffffffffff1673ffffffffffffffffffffffffffffffffffffffff166370a08231336040518263ffffffff1660e01b8152600401610f7d91906118c2565b602060405180830381865afa158015610f9a573d6000803e3d6000fd5b505050506040513d601f19601f82011682018060405250810190610fbe9190611b81565b6003541115611002576040517f08c379a0000000000000000000000000000000000000000000000000000000008152600401610ff99061204c565b60405180910390fd5b600b60009054906101000a900473ffffffffffffffffffffffffffffffffffffffff1673ffffffffffffffffffffffffffffffffffffffff166323b872dd33306003546040518463ffffffff1660e01b815260040161106393929190611e85565b6020604051808303816000875af1158015611082573d6000803e3d6000fd5b505050506040513d601f19601f820116820180604052508101906110a69190611c66565b50600c60009054906101000a900473ffffffffffffffffffffffffffffffffffffffff1673ffffffffffffffffffffffffffffffffffffffff166342842e0e600760019054906101000a900473ffffffffffffffffffffffffffffffffffffffff16336001546040518463ffffffff1660e01b815260040161112a93929190611e85565b600060405180830381600087803b15801561114457600080fd5b505af1158015611158573d6000803e3d6000fd5b5050505033600860006101000a81548173ffffffffffffffffffffffffffffffffffffffff021916908373ffffffffffffffffffffffffffffffffffffffff1602179055506111a5611405565b565b6111af6114a2565b6111b96000611520565b565b60008060009054906101000a900473ffffffffffffffffffffffffffffffffffffffff16905090565b600b60009054906101000a900473ffffffffffffffffffffffffffffffffffffffff1681565b600c60009054906101000a900473ffffffffffffffffffffffffffffffffffffffff1681565b600080600080600080600080600554600654600354600154600c60009054906101000a900473ffffffffffffffffffffffffffffffffffffffff1673ffffffffffffffffffffffffffffffffffffffff1663288fa5bf6001546040518263ffffffff1660e01b81526004016112a59190611b51565b602060405180830381865afa1580156112c2573d6000803e3d6000fd5b505050506040513d601f19601f820116820180604052508101906112e69190611ca8565b600760009054906101000a900460ff16600960009054906101000a900473ffffffffffffffffffffffffffffffffffffffff16600a60009054906101000a900473ffffffffffffffffffffffffffffffffffffffff16975097509750975097509750975097509091929394959697565b61135e6114a2565b600073ffffffffffffffffffffffffffffffffffffffff168173ffffffffffffffffffffffffffffffffffffffff16036113cd576040517f08c379a00000000000000000000000000000000000000000000000000000000081526004016113c4906120de565b60405180910390fd5b6113d681611520565b50565b600081836113e791906120fe565b905092915050565b600081836113fd919061216f565b905092915050565b6001600760006101000a81548160ff0219169083151502179055506001547f2d9abaed896ece5f9f4f4484ce756b21c297e5aa6739114910fc097c750f27a5600760019054906101000a900473ffffffffffffffffffffffffffffffffffffffff16600860009054906101000a900473ffffffffffffffffffffffffffffffffffffffff166040516114989291906121a0565b60405180910390a2565b6114aa6115e4565b73ffffffffffffffffffffffffffffffffffffffff166114c86111bb565b73ffffffffffffffffffffffffffffffffffffffff161461151e576040517f08c379a000000000000000000000000000000000000000000000000000000000815260040161151590612215565b60405180910390fd5b565b60008060009054906101000a900473ffffffffffffffffffffffffffffffffffffffff169050816000806101000a81548173ffffffffffffffffffffffffffffffffffffffff021916908373ffffffffffffffffffffffffffffffffffffffff1602179055508173ffffffffffffffffffffffffffffffffffffffff168173ffffffffffffffffffffffffffffffffffffffff167f8be0079c531659141344cd1fd0a4f28419497f9722a3daafe3b4186f6b6457e060405160405180910390a35050565b600033905090565b6000604051905090565b600080fd5b600080fd5b600073ffffffffffffffffffffffffffffffffffffffff82169050919050565b600061162b82611600565b9050919050565b61163b81611620565b811461164657600080fd5b50565b60008135905061165881611632565b92915050565b6000819050919050565b6116718161165e565b811461167c57600080fd5b50565b60008135905061168e81611668565b92915050565b600080fd5b600080fd5b6000601f19601f8301169050919050565b7f4e487b7100000000000000000000000000000000000000000000000000000000600052604160045260246000fd5b6116e78261169e565b810181811067ffffffffffffffff82111715611706576117056116af565b5b80604052505050565b60006117196115ec565b905061172582826116de565b919050565b600067ffffffffffffffff821115611745576117446116af565b5b61174e8261169e565b9050602081019050919050565b82818337600083830152505050565b600061177d6117788461172a565b61170f565b90508281526020810184848401111561179957611798611699565b5b6117a484828561175b565b509392505050565b600082601f8301126117c1576117c0611694565b5b81356117d184826020860161176a565b91505092915050565b600080600080608085870312156117f4576117f36115f6565b5b600061180287828801611649565b945050602061181387828801611649565b93505060406118248782880161167f565b925050606085013567ffffffffffffffff811115611845576118446115fb565b5b611851878288016117ac565b91505092959194509250565b60007fffffffff0000000000000000000000000000000000000000000000000000000082169050919050565b6118928161185d565b82525050565b60006020820190506118ad6000830184611889565b92915050565b6118bc81611620565b82525050565b60006020820190506118d760008301846118b3565b92915050565b6000819050919050565b60006119026118fd6118f884611600565b6118dd565b611600565b9050919050565b6000611914826118e7565b9050919050565b600061192682611909565b9050919050565b6119368161191b565b82525050565b6000602082019050611951600083018461192d565b92915050565b600061196282611909565b9050919050565b61197281611957565b82525050565b600060208201905061198d6000830184611969565b92915050565b61199c8161165e565b82525050565b60008115159050919050565b6119b7816119a2565b82525050565b6000610100820190506119d3600083018b611993565b6119e0602083018a611993565b6119ed6040830189611993565b6119fa6060830188611993565b611a0760808301876118b3565b611a1460a08301866119ae565b611a2160c08301856118b3565b611a2e60e08301846118b3565b9998505050505050505050565b600060208284031215611a5157611a506115f6565b5b6000611a5f84828501611649565b91505092915050565b600082825260208201905092915050565b7f6f6e6c792073656c6c6572206164647265737300000000000000000000000000600082015250565b6000611aaf601383611a68565b9150611aba82611a79565b602082019050919050565b60006020820190508181036000830152611ade81611aa2565b9050919050565b7f73616c65206973206e6f742066696e69736865642e0000000000000000000000600082015250565b6000611b1b601583611a68565b9150611b2682611ae5565b602082019050919050565b60006020820190508181036000830152611b4a81611b0e565b9050919050565b6000602082019050611b666000830184611993565b92915050565b600081519050611b7b81611668565b92915050565b600060208284031215611b9757611b966115f6565b5b6000611ba584828501611b6c565b91505092915050565b7f4e487b7100000000000000000000000000000000000000000000000000000000600052601160045260246000fd5b6000611be88261165e565b9150611bf38361165e565b9250828203905081811115611c0b57611c0a611bae565b5b92915050565b6000604082019050611c2660008301856118b3565b611c336020830184611993565b9392505050565b611c43816119a2565b8114611c4e57600080fd5b50565b600081519050611c6081611c3a565b92915050565b600060208284031215611c7c57611c7b6115f6565b5b6000611c8a84828501611c51565b91505092915050565b600081519050611ca281611632565b92915050565b600060208284031215611cbe57611cbd6115f6565b5b6000611ccc84828501611c93565b91505092915050565b7f73616c65206973206e6f742066696e6973686564000000000000000000000000600082015250565b6000611d0b601483611a68565b9150611d1682611cd5565b602082019050919050565b60006020820190508181036000830152611d3a81611cfe565b9050919050565b7f6f6e6c792073746f726520616464726573730000000000000000000000000000600082015250565b6000611d77601283611a68565b9150611d8282611d41565b602082019050919050565b60006020820190508181036000830152611da681611d6a565b9050919050565b7f6e6661737420616c726561647920757365640000000000000000000000000000600082015250565b6000611de3601283611a68565b9150611dee82611dad565b602082019050919050565b60006020820190508181036000830152611e1281611dd6565b9050919050565b7f6275796572206973206e6f74206f776e65720000000000000000000000000000600082015250565b6000611e4f601283611a68565b9150611e5a82611e19565b602082019050919050565b60006020820190508181036000830152611e7e81611e42565b9050919050565b6000606082019050611e9a60008301866118b3565b611ea760208301856118b3565b611eb46040830184611993565b949350505050565b7f73616c65206973206e6f7420737461727465642e000000000000000000000000600082015250565b6000611ef2601483611a68565b9150611efd82611ebc565b602082019050919050565b60006020820190508181036000830152611f2181611ee5565b9050919050565b7f73616c652069732066696e697368656400000000000000000000000000000000600082015250565b6000611f5e601083611a68565b9150611f6982611f28565b602082019050919050565b60006020820190508181036000830152611f8d81611f51565b9050919050565b7f73656c6c6572206973206e6f74206f776e657200000000000000000000000000600082015250565b6000611fca601383611a68565b9150611fd582611f94565b602082019050919050565b60006020820190508181036000830152611ff981611fbd565b9050919050565b7f62616c616e6365206973206e6f7420656e6f7567680000000000000000000000600082015250565b6000612036601583611a68565b915061204182612000565b602082019050919050565b6000602082019050818103600083015261206581612029565b9050919050565b7f4f776e61626c653a206e6577206f776e657220697320746865207a65726f206160008201527f6464726573730000000000000000000000000000000000000000000000000000602082015250565b60006120c8602683611a68565b91506120d38261206c565b604082019050919050565b600060208201905081810360008301526120f7816120bb565b9050919050565b60006121098261165e565b91506121148361165e565b92508282026121228161165e565b9150828204841483151761213957612138611bae565b5b5092915050565b7f4e487b7100000000000000000000000000000000000000000000000000000000600052601260045260246000fd5b600061217a8261165e565b91506121858361165e565b92508261219557612194612140565b5b828204905092915050565b60006040820190506121b560008301856118b3565b6121c260208301846118b3565b9392505050565b7f4f776e61626c653a2063616c6c6572206973206e6f7420746865206f776e6572600082015250565b60006121ff602083611a68565b915061220a826121c9565b602082019050919050565b6000602082019050818103600083015261222e816121f2565b905091905056fea2646970667358221220d97a30164d75290841ef7fe8a2526caed47b55b75f5cdf0144eca1ed4750e9cc64736f6c63430008130033",
  "immutableReferences": {},
  "source": "// SPDX-License-Identifier: MIT\r\npragma solidity ^0.8.4;\r\n\r\nimport \"@openzeppelin/contracts/access/Ownable.sol\";\r\nimport \"@openzeppelin/contracts/token/ERC721/ERC721.sol\";\r\nimport \"@openzeppelin/contracts/token/ERC20/ERC20.sol\";\r\nimport \"@openzeppelin/contracts/token/ERC721/IERC721Receiver.sol\";\r\n//import \"./access/Ownable.sol\";\r\n//import \"./token/ERC20/ERC20.sol\";\r\n//import \"./token/ERC721/ERC721.sol\";\r\nimport \"./Nfast.sol\";\r\nimport \"./SaleFactory.sol\";\r\nimport \"./utils/math/SafeMath.sol\";\r\n\r\ncontract Sale is Ownable,IERC721Receiver {\r\n    using SafeMath for uint256;\r\n    //nft id\r\n    uint256 private nftId;\r\n    // \r\n    address private storeAddress;\r\n    // \r\n    uint256 private price;\r\n    //  0  1 \r\n    bool private isStore;\r\n    //  \r\n    uint256 private startDate;\r\n    //  \r\n    uint256 private endDate;\r\n    // \r\n    bool private isEnd;\r\n    // \r\n    address private sellerAddress;\r\n    // \r\n    address private buyerAddress;\r\n\r\n    address public currencyAddress;\r\n    //nfast \r\n    address public nftAddress;\r\n\r\n\r\n\r\n    // \r\n    IERC20 public erc20Contract;\r\n    Nfast public erc721Contract;\r\n\r\n    //todo event  \r\n    event Purchase(uint256 indexed _nftId, address _seller, address _buyer);\r\n    //todo event \r\n    event Withdraw(address indexed _to, uint256 _price);\r\n    //todo event \r\n    event Refund(uint256 indexed _nftId,address _to);\r\n\r\n\r\n    constructor (uint256 _nftId, uint256 _price, bool _isStore, uint256 _startDate, uint256 _endDate, address _currencyAddress, address _nftAddress, address _sellerAddress){\r\n        require(_price > 0, \"price error\");\r\n        require(_endDate > block.timestamp,\"time error\");\r\n        nftId = _nftId;\r\n        price = _price;\r\n        sellerAddress = _sellerAddress;\r\n        startDate = _startDate;\r\n        endDate = _endDate;\r\n        currencyAddress = _currencyAddress;\r\n        nftAddress = _nftAddress;\r\n        isEnd = false;\r\n        erc20Contract = IERC20(_currencyAddress);\r\n        erc721Contract = Nfast(_nftAddress);\r\n        isStore=_isStore;\r\n    }\r\n\r\n\r\n    function purchase()\r\n    public\r\n    payable\r\n    onlyAfterStart onlyEndDate {\r\n        //  \r\n        //    \r\n        require(sellerAddress == erc721Contract.ownerOf(nftId), \"seller is not owner\");\r\n        //   \r\n        require(price <= erc20Contract.balanceOf(msg.sender), \"balance is not enough\");\r\n        //todo approve\r\n        // \r\n        erc20Contract.transferFrom(msg.sender, address(this), price);\r\n        //nft \r\n        erc721Contract.safeTransferFrom(sellerAddress, msg.sender, nftId);\r\n\r\n        buyerAddress = msg.sender;\r\n        end();\r\n    }\r\n\r\n    function refund()\r\n    public\r\n    payable\r\n    onlyStoreAddress onlyIsEnd {\r\n        // ,  \r\n        //  \r\n        require(erc721Contract.getIsUse(nftId) == false, \"nfast already used\");\r\n        //  \r\n        require(buyerAddress == erc721Contract.ownerOf(nftId), \"buyer is not owner\");\r\n        // todo    ...\r\n        erc721Contract.setIsUse(nftId);\r\n        //     \r\n        erc20Contract.transferFrom(msg.sender, buyerAddress, erc721Contract.getPrice(nftId));\r\n\r\n        emit Refund(nftId,buyerAddress);\r\n    }\r\n\r\n    function withdraw()\r\n    public\r\n    payable\r\n    onlySellerAddress onlyIsEnd  {\r\n        //   , \r\n        //       \r\n        uint256 nowPrice = price;\r\n        if (isStore == false) {\r\n            //     \r\n            uint256 subPrice = nowPrice.mul(erc721Contract.getCharge(nftId)).div(100);\r\n            nowPrice=price - subPrice;\r\n            //\r\n            erc20Contract.transfer(msg.sender, nowPrice);\r\n            //  \r\n            erc20Contract.transfer(erc721Contract.getStoreAddress(nftId),subPrice);\r\n        }\r\n        else {\r\n            //     ()\r\n            require(block.timestamp > endDate, \"sale is not finished\");\r\n            //  \r\n            // payable(msg.sender).transfer(address(this).balance);\r\n            erc20Contract.transfer(msg.sender, nowPrice);\r\n        }\r\n        emit Withdraw(msg.sender,nowPrice);\r\n    }\r\n\r\n    function getSaleInfo()\r\n    public\r\n    view\r\n    returns (uint256, uint256, uint256, uint256, address, bool, address, address)    {\r\n        return (startDate, endDate, price, nftId, erc721Contract.getStoreAddress(nftId), isEnd, currencyAddress, nftAddress);\r\n    }\r\n\r\n    // function balanceOf() public view returns (uint256) {\r\n    //     return currencyAddress.balanceOf(address(this));\r\n    // }\r\n\r\n    function end() private {\r\n        isEnd = true;\r\n        emit Purchase(nftId,sellerAddress,buyerAddress);\r\n    }\r\n\r\n    function onERC721Received (address operator, address from, uint256 tokenId, bytes memory data)\r\n    public\r\n    override\r\n    returns (bytes4) {\r\n        // do something with the transferred NFT\r\n        return this.onERC721Received.selector;\r\n    }\r\n\r\n    modifier onlyIsEnd() {\r\n        require(isEnd == true, \"sale is not finished.\");\r\n        _;\r\n    }\r\n    modifier onlyAfterStart() {\r\n        require(block.timestamp >= startDate, \"sale is not started.\");\r\n        _;\r\n    }\r\n    modifier onlyEndDate(){\r\n        require(block.timestamp < endDate, \"sale is finished\");\r\n        _;\r\n    }\r\n    modifier onlyStoreAddress(){\r\n        require(msg.sender == erc721Contract.getStoreAddress(nftId), \"only store address\");\r\n        _;\r\n    }\r\n    modifier onlySellerAddress(){\r\n        require(msg.sender == sellerAddress, \"only seller address\");\r\n        _;\r\n    }\r\n\r\n}\r\n",
  "sourcePath": "C:\\ssafy\\git\\S08P22A307\\smartContract\\contracts\\Sale.sol",
  "compiler": {
    "name": "solc",
    "version": "0.8.19+commit.7dd6d404.Emscripten.clang"
  },
  "schemaVersion": "3.4.12",
  "updatedAt": "2023-03-30T08:09:21.178Z",
  "devdoc": {
    "kind": "dev",
    "methods": {
      "onERC721Received(address,address,uint256,bytes)": {
        "details": "Whenever an {IERC721} `tokenId` token is transferred to this contract via {IERC721-safeTransferFrom} by `operator` from `from`, this function is called. It must return its Solidity selector to confirm the token transfer. If any other value is returned or the interface is not implemented by the recipient, the transfer will be reverted. The selector can be obtained in Solidity with `IERC721Receiver.onERC721Received.selector`."
      },
      "owner()": {
        "details": "Returns the address of the current owner."
      },
      "renounceOwnership()": {
        "details": "Leaves the contract without owner. It will not be possible to call `onlyOwner` functions anymore. Can only be called by the current owner. NOTE: Renouncing ownership will leave the contract without an owner, thereby removing any functionality that is only available to the owner."
      },
      "transferOwnership(address)": {
        "details": "Transfers ownership of the contract to a new account (`newOwner`). Can only be called by the current owner."
      }
    },
    "version": 1
  },
  "userdoc": {
    "kind": "user",
    "methods": {},
    "version": 1
  }
}